:0300000002127376
:0C127300787FE4F6D8FD7581070212BAFE
:101793003F065B4F666D7D077F6F777C395E79719E
:1017A300000E151F1F150E001F1115151515151504
:1017B3001F111F131F191F11040E1F00000000002B
:1017C300000000001F0E0400040E1F001F0E040083
:100BF0004700060000000000000041000101410024
:100C0000FA004100F900410000004400F400000037
:100C1000004100170141001600410050034100153A
:100C20000141004F01603400190000000000000085
:100C300000000000000000000000000000000000B4
:100C400000000000000000000000000000000000A4
:100C500000000000000000000000000000609C0098
:100C6000550000000000000000000000000000002F
:100C70000000000000000000000000000000000074
:100C80000000000000000000000000000000000064
:100C90000000000000000000000000000000000054
:100CA0000000000000000000000000000000000044
:100CB0000000000000000000000000000000000034
:100CC0000000000000000000000000000000000024
:100CD0000000000000000000000000000000000014
:100CE0000000000000000000000000000000000004
:100CF0000000000000000000000000000048000D9F
:100D00000207000002000000410002014100040748
:100D1000410053024100F10141000302410005017D
:100D2000410054064100F2074100510041005200C9
:100D30004100F800410018004100F30042004D005E
:010D400000B2
:101467009000F2E0B4040204F09000F2E0D364804C
:10147700948840037409F09000F2E0B4090B9000DF
:1014870054E004F0E49000F2F0900054E0B4090B4B
:10149700900005E004F0E4900054F0900005E0B4FB
:1014A700090B900003E004F0E4900005F0900002BF
:1014B700E064046005A3E0B404099000027403F03B
:0414C700A314F02258
:1018FF00AC06AD07D3ED9400EC940040147A007B56
:10190F006EEB1B70011AEB4A70F7ED1D70E61C8031
:01191F00E3E4
:0119200022A4
:101A0700D3EF9400EE9400400B00000000EF1F702E
:071A1700EF1E80EC0000222D
:10192100E4F9C2B77F2DFE121A07D2B730B7107F84
:10193100017E001218FF09E9D3940540EF1F227FB1
:0119410001A4
:011942002282
:02196300AD07CE
:10196500E4FBFAC2B70BED1392B77F057E00121A9E
:0C19750007D2B7EDC313FD0AEAB408E77F
:011981002243
:10167900E4F9900105F0FFFC7D08C2B70FBF000037
:10168900D2B70FBF00000FBF0000A2B7E43390012B
:1016990005F0E0C43333335480FFE9C3134FF97EB7
:1016A900007F04EF1FAA0670011E4A70F6ED1D7037
:0816B900011CED4C70C4AF01EF
:0116C1002206
:101A34001219217FCC1219637F441219637F647ECB
:041A4400000218FF85
:10152900E4900101F0A3F0A3F0A3F0FFFE121A3436
:101539001219217FCC1219637F017E001218FF7FD7
:10154900BE121963121679900103E4F0A3EFF012A9
:101559001679900101E0F0A3E04FF0E07F00FE90E2
:101569000101F0A3EFF0A3E04EFEA3E0FF9001011B
:0C157900EEF0A3EFF0FDAC06EC1201C98F
:011585002243
:100A8A009000FB1203120000000012152912020244
:100A9A009000FFEEF0A3EFF0C3EE64809480900024
:100AAA00FFE04003020B5EFEA3E0F4FFEEF4FEEF6C
:100ABA002401FDE43EFC1201C99000FB12030690DA
:100ACA0000FBE0FCA3E0FDA3E0FEA3E0FFE4FBFAE9
:100ADA007980783D12001E9000FB1203069000F800
:100AEA007440F09000FBE0FCA3E0FDA3E0FEA3E06D
:100AFA00FF1202027C007D641202C2AA04AB057DC9
:100B0A000A7C00AF03AE021202C27E007F01CFCD83
:100B1A00CFCECCCE1202C290004DECF0A3EDF07D08
:100B2A000A7C00AF03AE021202C2900002EFF090FC
:100B3A0000FBE0FCA3E0FDA3E0FEA3E0FF1202023B
:100B4A007C007D641202C27E007F0ACFCDCFCECC5C
:100B5A00CE020BE7FCA3E0FDEC1201C99000FB12E8
:100B6A0003069000FBE0FCA3E0FDA3E0FEA3E0FF88
:100B7A00E4FBFA7980783D12001E9000FB1203060E
:100B8A00E49000F8F0FBFA79C878429000FBE0FCA8
:100B9A00A3E0FDA3E0FEA3E0FF12012712020290E8
:100BAA00004DEEF0A3EFF09000FBE0FCA3E0FDA304
:100BBA00E0FEA3E0FF120202AB07AA067C007D64F6
:100BCA001202C27E007F0ACFCDCFCECCCE1202C295
:100BDA00900002EFF07C007D0AAF03AE021202C25F
:050BEA00900004EDF095
:010BEF0022E3
:101A1E00D2AFD2A9D2AB758911758C3C758AB075CF
:061A2E008DFF758BFB2209
:03000B000219BC1B
:1019BC00C0E0C083C082758C3C758AB0900018E082
:0919CC0004F0D082D083D0E03297
:03001B000219D5F2
:1019D500C0E0C083C082758DFF758BFB9000F3E07E
:0919E50004F0D082D083D0E0327E
:061A48009000F97401F0AA
:0C1A4E007FB17EF07D02DDFEDEFADFF6E7
:011A5A002269
:0C000E007F027EA07D0EDDFEDEFADFF634
:01001A0022C3
:081A78007F047E55DEFEDFFA5B
:011A80002243
:0C1A6B007F147E447D23DDFEDEFADFF6F2
:011A7700224C
:1019EE007F38121A5B7F0C121A5B7F01121A5B7F13
:0919FE0006121A5B7F80021A5BDD
:101586009000FCEBF0A3EAF0A3E9F09000FBEFF08B
:1015960075F008A4F0E49000FFF09000FFE0FFC3B0
:1015A60094085032EF2440FF9000FBE02FFF90019B
:1015B60000F0121A5B9000FCE0FBA3E0FAA3E0F94E
:1015C600A3E0F582758300120283FF121991900041
:0615D600FFE004F080C4F8
:0115DC0022EC
:0F198200F583E0FF3395E0FEEF2430FFE43EFEF7
:10199100C2A7C2A5D2A68F80D2A712000EC2A722CB
:101A5B00C2A7C2A5C2A68F80D2A712000EC2A72210
:1016C2001219917D087F011216ED7F201219917D6A
:1016D2000B7F011216ED7F3A1219917D0E7F0112D6
:0B16E20016ED7F3A1219917D017F0286
:1016ED00AC05AB071CEBB40107EC2480FF121A5BB1
:0C16FD00EBB40207EC24C0FF121A5B22C1
:10184600C2B5C2B6D2B57E01E4FBEF5E24FF92B408
:10185600D2B6EE25E0FEC2B60BEBB408ED7E01E48F
:10186600FBED5E24FF92B4EE25E0FED2B6C2B60BC7
:04187600EBB408EDDA
:01187A00224B
:10174F00E4FEC2B5C2B6D2B57D01FBC2B6EF5D24D1
:10175F00FF92B4D2B6ED25E0FD0BEBB408EDD2B499
:10176F00E4FBE4FDC2B630B4027D80EE4DFED2B68E
:10177F00EBC394075004EEC313FE0BEBB408E3C2A4
:03178F00B4AF06EE
:011792002234
:1017D300E4FD7F8E1218467F801218467F8212180E
:1017E300467D117F841218467D297F861218467D17
:1017F300037F881218467D077F8A1218467D157F5E
:0B1803008C1218467D807F8E02184674
:1018D5007C81E4FD7F8E121846E4FAAF0412174F9F
:1018E50074062AF582E43400F583EFF00C0C0AEA5D
:0A18F500B407E87D807F8E021846DC
:02060A00A9073E
:10060C00E9640C60030206A67F01EF25E025E024D7
:10061C001DF582E43400F583E0FCA3E0FDEF25E05A
:10062C0025E02419F582E43400F583ECF0A3EDF019
:10063C00EF25E025E0241FF582E43400F583E0FC8F
:10064C00A3E0FDEF25E025E0241BF582E43400F562
:10065C0083ECF0A3EDF0E4FEEF75F00CA42461F54F
:10066C0082E43400F583E5822EF582E43583F5834C
:10067C00E0FDEF75F00CA42455F582E43400F5830D
:10068C00E5822EF582E43583F583EDF00EEEB40CA5
:10069C00C70FEF640C6003020616900004E0FF33F2
:1006AC0095E0FE7C007D641202B0AA06AB079000B8
:1006BC0002E0FF3395E0FE7C037DE81202B0EF2BE5
:1006CC00FBEE3AFA900053E0FF3395E0FE7C007DA0
:1006DC000A1202B0EF2BFFEE3AFE9000F1E0FD3370
:1006EC0095E0FCEF2DFFEE3CFEE925E025E024191A
:1006FC00F582E43400F583EEF0A3EFF0900005E012
:10070C00FF3395E0FE7C007D641202B0AA06AB07B5
:10071C00900003E0FF3395E0FE7C037DE81202B00D
:10072C00EF2BFBEE3AFA900054E0FF3395E0FE7CA1
:10073C00007D0A1202B0EF2BFFEE3AFE9000F2E0C1
:10074C00FD3395E0FCEF2DFFEE3CFEE925E025E0C6
:10075C00241BF582E43400F583EEF0A3EFF0900057
:10076C000CE0FFC4540FFEE975F00CA42455F5827F
:10077C00E43400F583EEF0EF540FFFE975F00CA4B0
:10078C002456F582E43400F583EFF090000AE0FF84
:10079C00C4540FFEE975F00CA42457F582E4340020
:1007AC00F583EEF0EF540FFFE975F00CA42458F527
:1007BC0082E43400F583EFF0900009E0FFC4540F9D
:1007CC00FEE975F00CA42459F582E43400F583EEAF
:1007DC00F0EF540FFFE975F00CA4245AF582E434C1
:1007EC0000F583EFF0900008E0FFC4540FFEE975AC
:1007FC00F00CA4245BF582E43400F583EEF0EF54A6
:10080C000FFFE975F00CA4245CF582E43400F58349
:10081C00EFF0900007E0FFC4540FFEE975F00CA454
:10082C00245DF582E43400F583EEF0EF540FFFE91C
:10083C0075F00CA4245EF582E43400F583EFF0909F
:10084C000006E0FFC4540FFEE975F00CA4245FF51C
:10085C0082E43400F583EEF0EF540FFFE975F00CF1
:0C086C00A42460F582E43400F583EFF072
:01087800225D
:10180E009000F9E06401602F900001E07003740213
:10181E00F0900001E0B40102E4F0900001E07005E8
:10182E007F08121A5B900001E0B402087F0C121AB6
:08183E005B7401F0121A48224C
:1018A9009000F9E064016023900015E004F09000D5
:1018B900507403F07F01121A5B900015E0B404081C
:0C18C9007401F0E4900000F0121A4822B4
:1014CB009000F9E064016055900015E064037047EB
:1014DB00900050E0FF6404600EEF64076009EF6456
:1014EB000B6004EFB40E08900050E014F08028EF6E
:1014FB0064066004EFB40D09900050E024FEF08008
:10150B0016EFB40A089000507407F0800AEFB4038A
:0E151B0006900050740EF09000F97401F0225A
:101389009000F9E064016069900015E0FFB4020F74
:10139900900017E014F0E0C3940150037401F0EFDA
:1013A90064037047900050E0FF6403600EEF640629
:1013B9006009EF640A6004EFB40D08900050E0047E
:1013C900F08028EF64046004EFB40B09900050E04A
:1013D9002402F08016EFB40708900050740AF080D8
:1013E9000AEFB40E069000507403F09000F97401EE
:0213F900F022E0
:10104C009000F9E064017003021115900015E0FFA7
:10105C00B4020F900017E004F0E0D3940C4003743A
:10106C000CF0EF64036003021112900050E0FFB427
:10107C00030690000DE004F0EFB4040690000EE0BF
:10108C0004F0EFB4060690000FE004F0EFB407068E
:10109C00900010E004F0EFB40A06900011E004F0A8
:1010AC00EFB40B06900012E004F0EFB40D069000C4
:1010BC0013E004F0EFB40E06900014E004F0E4FF2B
:1010CC00E4FEEF25E025E0240DF582E43400F58301
:1010DC00E5822EF582E43583F583E0D36480948930
:1010EC00401AEF25E025E0240DF582E43400F58369
:1010FC00E5822EF582E43583F583E4F00EEEB4043C
:09110C00C10FEFB402BA121A4837
:0111150022B7
:101116009000F9E0640170030211CC900015E064C0
:101126000360030211C9900050E0FFB4030690006B
:101136000DE014F0EFB4040690000EE014F0EFB4E6
:10114600060690000FE014F0EFB40706900010E0DA
:1011560014F0EFB40A06900011E014F0EFB40B0699
:10116600900012E014F0EFB40D06900013E014F0B6
:10117600EFB40E06900014E014F0E4FFE4FEEF2551
:10118600E025E0240DF582E43400F583E5822EF5B2
:1011960082E43583F583E0C364809480501BEF2599
:1011A600E025E0240DF582E43400F583E5822EF592
:1011B60082E43583F5837409F00EEEB404C00FEFB4
:0611C600B402B9121A4840
:0111CC002200
:101943009000F9E06401601790004FE0FF12060A6F
:1019530090004FE0C3940C5003E004F0121A4822A5
:1019A1009000F9E064016012E4900051F0A3F0901E
:0B19B1000000E0045401F0121A48226C
:1015DD009000FAE0B4A20312180E9000FAE0B46283
:1015ED00031218A99000FAE0B402031214CB900074
:1015FD00FAE0B4C2031213899000FAE0B49003121A
:10160D00104C9000FAE0B4A8031211169000FAE005
:10161D00B422031219439000FAE0B4E2031219A1A7
:01162D00229A
:091A8100D2A8D288D2AFD2B22261
:03000300020D42A9
:100D4200C0E0C0F0C083C082C0D075D000C000C077
:0D0D520001C002C003C004C005C006C007F8
:100D5F00E4F930B203020E29FDFC20B210C3ED946A
:100D6F00E8EC940350070DBD00010C80ED7C007D75
:100D7F000030B210C3ED94F4EC940150070DBD0098
:100D8F00010C80ED7900900106E4F07C007D0030CD
:100D9F00B203020E3F20B210C3ED9432EC94005018
:100DAF00070DBD00010C80ED900109E4F0A3F012D6
:100DBF001A78900108E025E0F0900107E033F03059
:100DCF00B21F7C007D0030B210C3ED94C8EC9400CC
:100DDF0050070DBD00010C80ED900109E4F0A30454
:100DEF00F0900109E0FEA3E0FF900107E04EF0A3B1
:100DFF00E04FF0900106E004F0E0C39408408C90BF
:100E0F000107A3E0FF74F429F582E43400F583EFC2
:100E1F00F009E964046003020D959000F7E0F4FF18
:100E2F009000F6E0FEB507059000FAEEF01215DD22
:100E3F00D007D006D005D004D003D002D001D00007
:0B0E4F00D0D0D082D083D0F0D0E032B1
:10087900900004E0FF3395E0FE7C007D641202B035
:10088900AA06AB07900002E0FF3395E0FE7C037DEA
:10089900E81202B0EF2BFBEE3AFA900053E0FF3377
:1008A90095E0FE7C007D0A1202B0EF2BFFEE3AFEC6
:1008B9009000F1E0FD3395E0FCEF2DFFEE3C900058
:1008C900FBF0A3EFF0900005E0FF3395E0FE7C001C
:1008D9007D641202B0AA06AB07900003E0FF3395CE
:1008E900E0FE7C037DE81202B0EF2BFBEE3AFA90B2
:1008F9000054E0FF3395E0FE7C007D0A1202B0EF60
:100909002BFFEE3AFE9000F2E0FD3395E0FCEF2D6F
:10091900FFEE3C9000FDF0A3EFF090000EE0FF33F6
:1009290095E0FE7C007D641202B0AA06AB07900038
:100939000DE0FF3395E0FE7C037DE81202B0EF2B5A
:10094900FBEE3AFA90000FE0FF3395E0FE7C007D64
:100959000A1202B0EF2BFFEE3AFEA3E0FD3395E059
:10096900FCEF2DFFEE3C9000FFF0A3EFF09000129A
:10097900E0FF3395E0FE7C007D641202B0AA06AB6D
:1009890007900011E0FF3395E0FE7C037DE8120239
:10099900B0EF2BFBEE3AFA900013E0FF3395E0FE3F
:1009A9007C007D0A1202B0EF2BFFEE3AFEA3E0FDB8
:1009B9003395E0FCEF2DFFEE3CFE9000FFE0FCA339
:1009C900E0FD9000FBE0FAA3E0FBC39DEC6480F836
:1009D900EA648098500CEB9FEE6480F8EA64809892
:1009E900500A9000517401F0D2A2C2A39000FFE016
:1009F900FCA3E0FD9000FDE0FAA3E0FBC39DEC64DD
:100A090080F8EA648098500CEB9FEE6480F8EA6401
:100A19008098500A9000527401F0D2A0C2A19000AF
:100A2900FFE0FCA3E0FD9000FBE0FAA3E0FBC39D1F
:100A3900EC6480F8EA6480985015EB9FEE6480F8C6
:100A4900EA6480984009E4900051F0C2A2D2A390D0
:100A590000FFE0FCA3E0FD9000FDE0FAA3E0FBC38A
:100A69009DEC6480F8EA6480985015EB9FEE6480F1
:100A7900F8EA6480984009E4900052F0C2A0D2A13B
:010A8900224A
:02162E00A9070A
:10163000E4FDFCE975F02DA4FFAEF0EF1FAA0670E3
:10164000011E4A70F6C2B0E975F005A4FFAEF0EFD6
:101650001FAA0670011E4A70F6D2B00DBD00010C23
:10166000ED64964C70CD900051E0B40102C2A3909D
:081670000052E0B40102C2A126
:01167800224F
:10187B00900000E07003120879900051E0FF7004B3
:10188B00A3E06019EFB401077F0212162ED2A390CA
:0E189B000052E0B401077F0412162ED2A122E3
:1013FB007D047F021216ED900002E02430FF1219DB
:10140B0091900004E02430FF1219917D077F0212A6
:10141B0016ED900053E02430FF1219919000F1E08B
:10142B002430FF1219917D0A7F021216ED900003F2
:10143B00E02430FF121991900005E02430FF1219BF
:10144B00917D0D7F021216ED900054E02430FF12B7
:0C145B0019919000F2E02430FF0219917A
:101709007D017F011216EDE4FF1216C27F20121926
:10171900917F201219917D037F021216ED7F01122C
:1017290019917D097F021216ED7F021219917D062A
:101739007F021216ED7F2E1219917D0C7F0212166F
:06174900ED7F2E02199154
:100F660090000CE0FFC4540F2430FAEF540F2430E5
:100F7600F97D027F011216EDAF02121991AF01122F
:100F860019917D047F011216ED90000AE0FFC4540A
:100F96000F2430FAEF540F2430F9AF02121991FFE3
:100FA6001219917D067F011216ED900009E0FFC42B
:100FB600540F2430FAEF540F2430F9AF021219916E
:100FC600FF121991900008E0FFC4540F2430FAEF85
:100FD600540F2430F97D097F011216EDEAB431046D
:100FE6007F31800AEAB432047F3280027F201219F0
:100FF60091900008E0540F2430F9FF1219917D0CEE
:101006007F011216ED900007E0FFC4540F2430FA5A
:10101600EF540F2430F9AF02121991FF1219917D86
:101026000F7F011216ED900006E0FFC4540F243026
:10103600FAEF540F2430F9EA64306005AF02121952
:0610460091AF01021991B7
:1012FF00900017E0FF75F00A84F9EF75F00A84AAE1
:10130F00F0E0B401089000167404F0800FEF900025
:10131F0016B40C057403F080037405F07D017F0192
:10132F001216ED7F201216C27F47121991E9243051
:10133F00FF121991EA2430FF1219917D047F0212D6
:10134F0016ED7F011219917D0A7F021216ED7F02B1
:10135F001219917D107F021216ED900016E0FF1208
:10136F0019917D077F021216ED7F2E1219917D0DB7
:0A137F007F021216ED7F2E02199175
:100398007D027F011216ED900017E075F00CA42481
:1003A80055F582E43400121982900017E075F00CBC
:1003B800A42456F582E43400121982900017E075DF
:1003C800F00CA42457F582E4340012198290001727
:1003D800E075F00CA42458F582E4340012198290D8
:1003E8000017E075F00CA42459F582E434001219C2
:1003F80082900017E075F00CA4245AF582E43400CA
:100408001219827D097F011216ED900017E075F030
:100418000CA4245BF582E43400121982900017E0E2
:1004280075F00CA4245CF582E434001219827D0C6A
:100438007F011216ED900017E075F00CA4245DF50D
:1004480082E43400121982900017E075F00CA4249D
:100458005EF582E434001219827D0F7F011216EDD9
:10046800900017E075F00CA4245FF582E4340012C4
:100478001982900017E075F00CA42460F582E4342A
:10048800001219827D057F021216ED900017E025F3
:10049800E025E02419F582E43400F583E0FEA3E0CA
:1004A800FF7C037DE81202C27C007D0A1202C2EDC5
:1004B8002430FFE43CFE121991900017E025E02556
:1004C800E02419F582E43400F583E0FEA3E0FF7C24
:1004D800007D641202C27C007D0A1202C2ED243043
:1004E800FFE43CFE1219917D087F021216ED900080
:1004F80017E025E025E02419F582E43400F583E0CF
:10050800FEA3E0FF7C007D0A1202C27C007D0A1275
:1005180002C2ED2430FFE43CFE121991900017E06E
:1005280025E025E02419F582E43400F583E0FEA3F4
:10053800E0FF7C007D0A1202C2ED2430FFE43CFE9D
:100548001219917D0B7F021216ED900017E025E03D
:1005580025E0241BF582E43400F583E0FEA3E0FFE8
:100568007C037DE81202C27C007D0A1202C2ED24DF
:1005780030FFE43CFE121991900017E025E025E0D9
:10058800241BF582E43400F583E0FEA3E0FF7C0041
:100598007D641202C27C007D0A1202C2ED2430FF83
:1005A800E43CFE1219917D0E7F021216ED900017A1
:1005B800E025E025E0241BF582E43400F583E0FE25
:1005C800A3E0FF7C007D0A1202C27C007D0A1202B1
:1005D800C2ED2430FFE43CFE121991900017E0258B
:1005E800E025E0241BF582E43400F583E0FEA3E077
:1005F800FF7C007D0A1202C2ED2430FFE43CFE02BB
:02060800199146
:100E5A007D017F011216ED7F201219917F20121950
:100E6A00917F201219917D047F011216ED7F4D1298
:100E7A0019917F411219917F581219917F201219E5
:100E8A00917F201219917F201219917F20121991B6
:100E9A007D0B7F011216ED7F4D1219917F491219B0
:100EAA00917F4E1219917F201219917F2012199168
:100EBA007F201219917F201219917D057F02121647
:100ECA00ED7F2E1219917D0C7F021216ED7F2E12E4
:100EDA0016E67F201219917F201219917D037F0255
:100EEA001216ED90000DE02430FF121991A3E024B0
:100EFA0030FF1219917D067F021216EDA3E024300D
:100F0A00FF121991A3E02430FF1219917D087F0284
:100F1A001216ED7F201219917F201219917D0A7FF6
:100F2A00021216EDA3E02430FF121991A3E0243037
:100F3A00FF1219917D0D7F021216EDA3E02430FFF6
:100F4A00121991A3E02430FF1219917D0F7F02122A
:0C0F5A0016ED7F201219917F20021991E2
:1011CD00121A811219EE121A1E7BFF7A1779A3E4F7
:1011DD00FF1215867BFF7A1779AB7F011215867B7F
:1011ED00FF7A1779B37F021215867BFF7A1779BBC9
:1011FD007F031215867BFF7A1779C37F041215863C
:10120D007BFF7A1779CB7F05121586121467120AA8
:10121D008A12187BE49000F9F0900015E0B40111EA
:10122D00E49000F9F01218D5120F66121709121377
:10123D00FB900015E0B4020BE49000F9F01212FFE0
:10124D00120398900015E0B403C1E49000F9F01278
:10125D000E5A121A6B900050E0FD7F021216ED7FB0
:06126D002012199180A57A
:10001E00EC4D6011E8497017ED33EC3304600DE4DC
:10002E00FCFFFEFD22E933E8330470F802026E1283
:10003E00023958046009E4CC248150062850090284
:10004E000278284003020275C0E0EB4A7044B98082
:10005E0006D0E0FB020264EF4E701CBD8008EBFF81
:10006E00EAFEE9FD80EBE98DF0A4FEE5F002010762
:10007E00E9CDF9EAFEEBFFEF89F0A4FCE5F0CE89BD
:10008E00F0A42EFFE435F0CD89F0A42DFEE435F07A
:10009E008067EF4E7005BD80D780C3EF8BF0A4ACA8
:1000AE00F0EE8BF0A42CFCE435F0F8EF8AF0A42CE3
:1000BE00E5F038FCE433CB8DF0A42CFCE5F03BF8F6
:1000CE00EE8AF0A42CFCE5F038F8E433CF89F0A4E6
:1000DE002CFCE5F038CF3400CE89F0A42FFFE5F0EC
:1000EE003EFEE433C98DF0A42EFEE5F039CD8AF044
:1000FE00A42FFFE5F03EFEE43DFD33D0E0FB5007BC
:10010E000BBB000F020278EC2CFCEF33FFEE33FE3C
:06011E00ED33FD0202506A
:10012400020278EC5D046005E85904700302026E73
:10013400120239580460F6EC4860F2EC7004FDFEDB
:10014400FF22C860DB2481C85009C39860025006AE
:100154000202759850CAF582E9294B4A7005AB82B0
:1001640002026475F0007C1A7880C3EF9BEE9AED6E
:1001740099400DC3EF9BFFEE9AFEED99FDE842F026
:10018400DC23ACF0D0E0FFD0E0FED0E0FDAB822079
:10019400E7101BEB60BAEC2CFCEF33FFEE33FEED03
:1001A40033FD020250E803F830E705C0F075F000B3
:1001B400EF2FFFEE33FEED33FD40B830E7C280AAE7
:1001C40075F020800E75F010800575F0087D007EB6
:1001D400007F003392D530D5031202F8EC3340107F
:1001E400EF33FFEE33FEED33FDEC33FCD5F0ED22BF
:0E01F400E5F0247EA2D513CC92E7CDCEFF22FB
:10020200EDD2E7CD33EC3392D524814006E4FFFEF4
:10021200FDFC22FCE4CFCECDCC24E0501174FF8053
:10022200EDC3CC13CCCD13CDCE13CECF13CF0470F0
:07023200F030D5DE0202F8F6
:10023900E9D2E7C933E833F892D5EDD2E7CD33EC0B
:0702490033FC5002B2D52284
:10025000EC30E7100FBF000C0EBE00080DBD00040F
:100260000BEB6014A2D5EB13FCED92E7FD2274FFBB
:10027000FCFDFEFF22E480F8A2D574FF13FC7D8014
:03028000E480EF28
:10127F000211CDE493A3F8E493A34003F68001F2A7
:10128F0008DFF48029E493A3F85407240CC8C33370
:10129F00C4540F4420C8834004F456800146F6DF3F
:1012AF00E4800B0102040810204080900BF0E47ED4
:1012BF00019360BCA3FF543F30E509541FFEE49334
:1012CF00A360010ECF54C025E060A840B8E493A3FB
:1012DF00FAE493A3F8E493A3C8C582C8CAC583CA26
:1012EF00F0A3C8C582C8CAC583CADFE9DEE780BEDE
:010D410000B1
:10028300BB010CE58229F582E5833AF583E0225030
:1002930006E92582F8E622BBFE06E92582F8E2227A
:0D02A300E58229F582E5833AF583E4932294
:1002B000EF8DF0A4A8F0CF8CF0A428CE8DF0A42E62
:0202C000FE221C
:1002C200C2D5EC30E709B2D5E4C39DFDE49CFCEE57
:1002D20030E715B2D5E4C39FFFE49EFE120343C389
:1002E200E49DFDE49CFC800312034330D507C3E484
:0602F2009FFFE49EFE22C6
:0E02F800C3E49FFFE49EFEE49DFDE49CFC2217
:0C030600ECF0A3EDF0A3EEF0A3EFF0226A
:10031200A8828583F0D083D0821203291203291286
:100322000329120329E473E493A3C583C5F0C583AB
:10033200C8C582C8F0A3C583C5F0C583C8C582C835
:010342002298
:10034300BC000BBE0029EF8DF084FFADF022E4CC9E
:10035300F875F008EF2FFFEE33FEEC33FCEE9DEC67
:10036300984005FCEE9DFE0FD5F0E9E4CEFD22EDAD
:10037300F8F5F0EE8420D21CFEADF075F008EF2FF7
:10038300FFED33FD4007985006D5F0F222C398FDE8
:050393000FD5F0EA2285
:00000001FF
