:0300000002089A59
:0C089A00787FE4F6D8FD75811F0208E1AC
:100926000A083F065B4F666D7D077F6F0812002041
:06093600406080A0C0E05B
:10080000E4F51AF51BFDFCF51EF51FFBFA051BE5CB
:100810001B7002051A051FE51F7002051E64644562
:100820001E7009F51EF51F0BBB00010AE51B64C80D
:10083000451A700A0DBD00010CE4F51AF51BED64B4
:100840000A4C7002FCFDEB640A4A7002FAFBE4FEFB
:10085000FFC3EF9408EE940050B374122FF8E6F53E
:1008600090EF64024E700774082DF8E6F580EF648F
:10087000064E700774082BF8E6F580751C00751D90
:1008800064E51D151D851C837002151C458370F1E0
:0A089000E4F5800FBF00010E80B7F1
:1008A600020800E493A3F8E493A34003F68001F260
:1008B60008DFF48029E493A3F85407240CC8C33353
:1008C600C4540F4420C8834004F456800146F6DF22
:1008D600E4800B0102040810204080900926E47E83
:1008E600019360BCA3FF543F30E509541FFEE49317
:1008F600A360010ECF54C025E060A840B8E493A3DE
:10090600FAE493A3F8E493A3C8C582C8CAC583CA08
:10091600F0A3C8C582C8CAC583CADFE9DEE780BEC0
:01093C0000BA
:00000001FF
