:030000000200AC4F
:0C00AC00787FE4F6D8FD75810A02005D43
:10005D001200031200477D017F01120026AF0A1224
:04006D00007180F2AC
:0C009F007F027EA07D0EDDFEDEFADFF6A3
:0100AB002232
:100003007F381200817F0C1200817F011200817FF3
:09001300061200817F80020081C9
:10007100C2A7C2A5D2A68F80D2A712009FC2A72273
:10008100C2A7C2A5C2A68F80D2A712009FC2A72273
:100026008F088D091509E508B40108E5092480FF44
:10003600120081E508B40208E50924C0FF12008118
:010046002297
:10004700759850758920758780758DF3758BF3D2F8
:06005700ACD2AFD28E22F4
:0300230002009147
:0E00910085990AC298850A993099FDC2993264
:00000001FF
