:03000000020EF0FD
:0C0EF000787FE4F6D8FD758107020F370B
:100ABA00000000000000000000000000000000002C
:100ACA00000000000000000000000000000000001C
:100ADA000200420033FC000800543FC86A52AA616F
:100AEA003FFE010008C20801FFFE080008000000DE
:100AFA0000024002410241024102410241027FFEDC
:100B0A00410241024122411A410240020002000010
:100B1A000080010006001FFFE0001FF811101110ED
:100B2A001110FFFF1110111011101FF80000000022
:100B3A0000000000000000000000000000000000AB
:100B4A00000000000000000000000000000000009B
:100B5A00010842082788248807BE0488E78824C831
:100B6A0024A82FA821882A883488288802A8011056
:100B7A0000007FFC010001000100010001003FF8B4
:100B8A00010001000120011001100100FFFE000018
:100B9A0008400840084017FC14443444344457FCC5
:100BAA0094441444144417FC144410401040104058
:100BBA00000000000000000000000000000000002B
:100BCA00000000000000000000000000000000001B
:100BDA00800040002000100008000400020001000C
:100BEA0000800040002000100008000400020001FC
:100F96004600060B5A0B7A0B9A4600000ADA0AFA42
:020FA6000B1A24
:1008000090000F7401F090000D740FF090000DE057
:10081000FFC364809480500302094BA37403F0A3C8
:10082000E07009EF700690000E740AF090000EE080
:10083000FF14F0EF7003020942E490000CF0900006
:100840000CE0F9C36480949050E2E9FB3395E0FA40
:10085000EB25E0FDEA33FC74DB2DF582740B3CF5EF
:1008600083E493F4FFE4F4FEC006C00774DA2DF5C8
:1008700082740B3CF583E493F4FDE4F4FC90000FE8
:10088000E0FF3395E0FEEF25E0FFEE33FE74002F2E
:10089000F58274003EF583E0FEA3E0F5828E83C00E
:1008A00083C08290000DE0FF3395E0FEEB2FFFEA5E
:1008B0003EFEEF25E0FFEE33FEEF2401FFE43EFEB7
:1008C000D082D083E5822FF582E5833EF583E493E1
:1008D000FB7A0090000FE0FF3395E0FEEF25E0FF8C
:1008E000EE33FE74002FF58274003EF583E0FEA324
:1008F000E0F5828E83C083C08290000DE0FF3395C7
:10090000E0FEE9F5823395E0F583E5822FFFE5838C
:100910003EFEEF25E0FFEE33FED082D083E5822F4E
:10092000F582E5833EF583E493FF900016E4F0A39F
:10093000EFF0D007D006120E5090000CE004F00249
:10094000083E90000DE014F002080C90000FE01437
:0C095000F0E0C3648094804003020806BD
:01095C002278
:10095D00E490000FF0E490000DF090000DE0FFC367
:10096D00648094904003020AA8A37403F0A3E0B43A
:10097D00010AEFB40F0690000E740AF090000EE01D
:10098D00FF14F0EF7003020A9FE490000CF090004A
:10099D000CE0F9C36480949050E2E9FB3395E0FAE2
:1009AD00EB25E0FDEA33FC74DB2DF582740B3CF591
:1009BD0083E493F4FFE4F4FEC006C00774DA2DF56A
:1009CD0082740B3CF583E493F4FDE4F4FC90000F8A
:1009DD00E0FF3395E0FEEF25E0FFEE33FE74002FD0
:1009ED00F58274003EF583E0FEA3E0F5828E83C0B0
:1009FD0083C08290000DE0FF3395E0FEEB2FFFEA00
:100A0D003EFEEF25E0FFEE33FEEF2401FFE43EFE58
:100A1D00D082D083E5822FF582E5833EF583E49382
:100A2D00FB7A0090000FE0FF3395E0FEEF25E0FF2D
:100A3D00EE33FE74002FF58274003EF583E0FEA3C5
:100A4D00E0F5828E83C083C08290000DE0FF339568
:100A5D00E0FEE9F5823395E0F583E5822FFFE5832E
:100A6D003EFEEF25E0FFEE33FED082D083E5822FF0
:100A7D00F582E5833EF583E493FF900016E4F0A341
:100A8D00EFF0D007D006120E5090000CE004F002EB
:100A9D00099B90000DE004F002096790000FE0043F
:0C0AAD00F0E0D3648094815003020962E1
:010AB900221A
:100BFA00E490000FF0E490000DF090000DE0FFC3C8
:100C0A00648094904003020D13A37403F0EFB40FB1
:100C1A000BA3E0B4010690000E740AF090000EE0F7
:100C2A00FF14F0EF7003020D0AE490000CF090003C
:100C3A000CE0F9C36480949050E290000FE0FF3317
:100C4A0095E0FEEF25E0FFEE33FE74062FF5827481
:100C5A00003EF583E0FCA3E0FDF5828C83C083C0EF
:100C6A008290000DE0FF3395E0FEE9FB3395E0FA50
:100C7A00EB2FFFEA3EFEEF25E0FBEE33FAEB240111
:100C8A00FFE43AFED082D083E5822FF582E5833EE7
:100C9A00F583E493F4FFE4F4FEC006C0078D828C6A
:100CAA0083E5822BF582E5833AF583E493F4FDE448
:100CBA00F4FCE9FF3395E0FEEF25E0FFEE33FE7426
:100CCA00DB2FF582740B3EF583E493FB7A00E9FF90
:100CDA003395E0FEEF25E0FFEE33FE74DA2FF5825E
:100CEA00740B3EF583E493FF900016E4F0A3EFF053
:100CFA00D007D006120E5090000CE004F0020C3817
:100D0A0090000DE004F0020C0490000FE004F0E003
:0A0D1A00D3648094815003020BFFA4
:010D240022AC
:100D250090000F7401F090000D740FF090000DE02D
:100D3500FFC3648094805003020E3EA37403F0EF5A
:100D4500700AA3E0700690000E740AF090000EE0A1
:100D5500FF14F0EF7003020E35E490000CF09000E4
:100D65000CE0F9C36480949050E290000FE0FF33EB
:100D750095E0FEEF25E0FFEE33FE74062FF5827455
:100D8500003EF583E0FCA3E0FDF5828C83C083C0C3
:100D95008290000DE0FF3395E0FEE9FB3395E0FA24
:100DA500EB2FFFEA3EFEEF25E0FBEE33FAEB2401E5
:100DB500FFE43AFED082D083E5822FF582E5833EBB
:100DC500F583E493F4FFE4F4FEC006C0078D828C3E
:100DD50083E5822BF582E5833AF583E493F4FDE41C
:100DE500F4FCE9FF3395E0FEEF25E0FFEE33FE74FA
:100DF500DB2FF582740B3EF583E493FB7A00E9FF64
:100E05003395E0FEEF25E0FFEE33FE74DA2FF58231
:100E1500740B3EF583E493FF900016E4F0A3EFF026
:100E2500D007D006120E5090000CE004F0020D63BE
:100E350090000DE014F0020D3190000FE014F0E089
:0A0E4500C3648094804003020D2B6B
:010E4F002280
:0E0E5000900010EEF0A3EFF0A3ECF0A3EDF095
:100E5E00D2B6D2B5E4FDC2B6900010E0FEA3E0FF1C
:100E6E001392B4EEA2E713FEEF13FF900010EEF014
:100E7E00A3EFF0D2B60DEDB408DCE4FDC2B69000DF
:100E8E0012E0FEA3E0FF1392B4EEA2E713FEEF13FF
:100E9E00FF900012EEF0A3EFF0D2B60DEDB408DC29
:100EAE00E4FDC2B6EB1392B4EAA2E713FAEB13FB1E
:100EBE00D2B60DEDB408EBE4FDC2B6900016E0FE1E
:100ECE00A3E0FF1392B4EEA2E713FEEF13FF900020
:100EDE0016EEF0A3EFF0D2B60DEDB408DCC2B5D22B
:010EEE00B54E
:010EEF0022E0
:100F7C0012095D120D2512095D120D25120BFA12C4
:0A0F8C000800120BFA120D2580E692
:100EFC00020F7CE493A3F8E493A34003F68001F281
:100F0C0008DFF48029E493A3F85407240CC8C333F6
:100F1C00C4540F4420C8834004F456800146F6DFC5
:100F2C00E4800B0102040810204080900F96E47EB0
:100F3C00019360BCA3FF543F30E509541FFEE493BA
:100F4C00A360010ECF54C025E060A840B8E493A381
:100F5C00FAE493A3F8E493A3C8C582C8CAC583CAAC
:100F6C00F0A3C8C582C8CAC583CADFE9DEE780BE64
:010FA8000048
:00000001FF
