:030000000208896A
:0C088900787FE4F6D8FD7581070208AE08
:0708A700D2A8D288D2AF22D3
:03000300020800F0
:10080000C0E0C0F0C083C082C0D075D000C000C0BE
:0D08100001C002C003C004C005C006C0073F
:10081D00900000E4F0A3F0900008F0A3F0120000A7
:10082D0020B2069000007401F012000030B2069064
:10083D0000017401F0900000E0B40125A3E0B401C3
:10084D002030B21DC3900009E094E8900008E094B8
:10085D0003500EA3E004F070E8900008E004F0806F
:01086D00E0AA
:10086E00D007D006D005D004D003D002D001D000DE
:0B087E00D0D0D082D083D0F0D0E03288
:080895007FC67E01DEFEDFFAE2
:01089D002238
:08089E007F1D7E07DEFEDFFA7C
:0108A600222F
:0508AE0012000080FBB8
:00000001FF
