:03000000020B2BC5
:0C0B2B00787FE4F6D8FD75813D020B7266
:100C45003F065B4F666D7D077F6FC0F9A4B0999233
:040C550082F8809011
:060C5900013D00013C001A
:10080000E4F508F509F50AF50BF50CF50DF50EF50F
:100810000FF510F511F512F513F514F515F516F59C
:1008200017F518F519F51AF51BF51CF51DF51EF54C
:100830001FF520F521F522F5231209C3E53C6401DB
:10084000703AF53CF508F509F50AF50BF50CF50DD0
:10085000F50EF50FF510F511F526F527F524F5251C
:10086000F52AF52BF528F529F52EF52FF52CF52D84
:10087000F532F533F530F531F512F513E53D640148
:10088000705A0509E50970020508648A4508700D6B
:10089000050BE50B7002050AE4F508F509E50B64A4
:1008A0003C450A700D050DE50D7002050CE4F50AD6
:1008B000F50BE50D643C450C700D050FE50F70025E
:1008C000050EE4F50CF50DE50F6418450E700D05E9
:1008D00011E51170020510E4F50EF50FAE0AAF0B2D
:1008E0007C007D0A120BB78C148D15AE0CAF0D7CFD
:1008F000007D0A120BB78C168D17AE0EAF0F7C0061
:100900007D0A120BB78C188D19AE10AF117C007DCB
:100910000A120BB78C1A8D1BAE0AAF0B7C007D0A36
:10092000120BB78E1C8F1DAE0CAF0D7C007D0A1212
:100930000BB78E1E8F1FAE0EAF0F7C007D0A120B01
:10094000B78E208F21AE10AF117C007D0A120BB73D
:100950008E228F23AE08AF097C007D14120BB78E58
:10096000128F13851A26851B27852224852325852A
:10097000182A85192B85202885212985162E85176B
:100980002F851E2C851F2D851432851533851C302F
:10099000851D31E4F534F535C3E5359408E5349427
:1009A000004003020839E53525E02424F8E6FE0876
:1009B000E6FFAD35AC34120A7F0535E53570D90553
:0309C0003480D5AB
:040A7F008E368F37E9
:100A8300EC7053EDB40800504D900A93F828287386
:100A9300020AAB020AAF020AB7020ABB020AC30286
:100AA3000AC7020ACF020AD3C2958002D295C29620
:100AB300C2978022C2958002D295D296C2978016A1
:100AC300C2958002D295C296D297800AC2958002BF
:100AD300D295D296D297ED64014C6018ED64034C25
:100AE3006012ED64054C600CED64074C6006E5375D
:100AF30045366008E537900C4593F580ED64014C6D
:100B03006012ED64034C600CED64054C6006ED640B
:100B1300074C7002D2877F647E00EF1FAC06700122
:070B23001E4C70F6E4F580A2
:010B2A0022A8
:1009C30020A25D753627753710E5371537AE3670BB
:1009D3000215364E70F320A247E4F53D753C01F550
:1009E3003AF53BE53B2407F539E4353AF538E53B81
:1009F3002409FFE4353AFEC3E5399FE5389E500FDD
:100A0300AF39120C0C0539E53970E3053880DF0581
:100A13003BE53B7002053AC39402E53A940040C3B8
:100A2300E53D702620A123753627753710E5371568
:100A330037AE36700215364E70F320A10D7F0412C7
:100A43000C0C7F05120C0C753D01E53D6401702B08
:100A530020A028753627753710E5371537AE367061
:100A63000215364E70F320A012E4F53D7F06120CFA
:0B0A73000C7F07120C0C7F06120C0C0D
:010A7E002255
:020C0C00A90736
:100C0E00E4FDFCE975F02DA4FFAEF0EF1FAA06700F
:100C1E00011E4A70F6C294E975F005A4FFAEF0EF1E
:100C2E001FAA0670011E4A70F6D2940DBD00010C6B
:060C3E00ED64504C70CD86
:010C4400228D
:100B3700020800E493A3F8E493A34003F68001F2CC
:100B470008DFF48029E493A3F85407240CC8C333BF
:100B5700C4540F4420C8834004F456800146F6DF8E
:100B6700E4800B0102040810204080900C59E47EB9
:100B7700019360BCA3FF543F30E509541FFEE49383
:100B8700A360010ECF54C025E060A840B8E493A34A
:100B9700FAE493A3F8E493A3C8C582C8CAC583CA75
:100BA700F0A3C8C582C8CAC583CADFE9DEE780BE2D
:010C5F000094
:100BB700BC000BBE0029EF8DF084FFADF022E4CC22
:100BC700F875F008EF2FFFEE33FEEC33FCEE9DECEB
:100BD700984005FCEE9DFE0FD5F0E9E4CEFD22ED31
:100BE700F8F5F0EE8420D21CFEADF075F008EF2F7B
:100BF700FFED33FD4007985006D5F0F222C398FD6C
:050C07000FD5F0EA2208
:00000001FF
