:030000000209846E
:0C098400787FE4F6D8FD75811D0209CBD8
:100A100010080000000000000000000000000000BE
:020A20000000D4
:10080000E4F51AF51BF51C751D01E4F518F519E55D
:100810001925E02408F8E4F608F60519E519700230
:1008200005186408451870E7E51B25E02408F876EC
:10083000000876017F057E00120A23E50845092499
:10084000FF9290E50A450B24FF9291E50C450D249B
:10085000FF9292E50E450F24FF9293E51045112477
:10086000FF9294E512451324FF9295E51445152453
:10087000FF9296E516451724FF9297AE1CAF1D7C9C
:10088000007D021208F9ED64014C7008051BE51BA0
:100890007002051AED4C7008E51B151B7002151A45
:1008A000E51B6408451A600DE51BF47003E51AF4B6
:1008B000600302080A051DE51D7002051CAE1CFF41
:1008C0007C007D021208F9ED64014C7008051BE5FF
:1008D0001B7002051AED4C600302080AE51B151B8C
:0708E0007002151A02080A5C
:100A23007C277D101208E7EF1FAC0670011E4C7087
:010A3300F6CC
:010A3400229F
:10099000020800E493A3F8E493A34003F68001F275
:1009A00008DFF48029E493A3F85407240CC8C33368
:1009B000C4540F4420C8834004F456800146F6DF37
:1009C000E4800B0102040810204080900A10E47EAD
:1009D000019360BCA3FF543F30E509541FFEE4932C
:1009E000A360010ECF54C025E060A840B8E493A3F3
:1009F000FAE493A3F8E493A3C8C582C8CAC583CA1E
:100A0000F0A3C8C582C8CAC583CADFE9DEE780BED5
:010A220000D3
:1008E700EF8DF0A4A8F0CF8CF0A428CE8DF0A42E25
:0208F700FE22DF
:1008F900C2D5EC30E709B2D5E4C39DFDE49CFCEE1A
:1009090030E715B2D5E4C39FFFE49EFE12092FC359
:10091900E49DFDE49CFC800312092F30D507C3E454
:060929009FFFE49EFE2288
:10092F00BC000BBE0029EF8DF084FFADF022E4CCAC
:10093F00F875F008EF2FFFEE33FEEC33FCEE9DEC75
:10094F00984005FCEE9DFE0FD5F0E9E4CEFD22EDBB
:10095F00F8F5F0EE8420D21CFEADF075F008EF2F05
:10096F00FFED33FD4007985006D5F0F222C398FDF6
:05097F000FD5F0EA2293
:00000001FF
