:0300000002118169
:0C118100787FE4F6D8FD7581070211C8E4
:1015CA0028E94F9B0600008328FFD54B730400804F
:1015DA00000E151F1F150E001F11151515151515CF
:1015EA001F111F131F191F11040E1F0000000000F6
:1015FA00000000001F0E0400040E1F001F0E04004E
:08160A00001715151515170056
:1007180047000700000000000000410002014101FD
:1007280000004100FA00410000004400F50000000C
:100738000041001A01410018004100510341001610
:1007480001410050016034001C000000000000005E
:100758000000000000000000000000000000000091
:100768000000000000000000000000000000000081
:1007780000000000000000000000000000609C0075
:10078800560000000000000000000000000000000B
:100798000000000000000000000000000000000051
:1007A8000000000000000000000000000000000041
:1007B8000000000000000000000000000000000031
:1007C8000000000000000000000000000000000021
:1007D8000000000000000000000000000000000011
:1007E8000000000000000000000000000000000001
:1007F80000000000000000000000000000000000F1
:1008080000000000000000000000000000000000E0
:100818000000000000000000000000000048000E7A
:100828000300000001050000410003024100050526
:10083800410054004100F200410017004100040249
:1008480041000601410055064100F3074100190027
:1008580041005200410053004101070041000100DE
:100868004100F90041001B004100F400410105006E
:0E0878004101060042010100004201030000A0
:061921009000FA7401F0D1
:0C1927007FB17EF07D02DDFEDEFADFF60F
:011933002291
:0C1969007F027EA07D0EDDFEDEFADFF6C0
:01197500224F
:081982007F047E55DEFEDFFA52
:01198A00223A
:061934009000FA7401F0BE
:0C193A007F147E447D23DDFEDEFADFF624
:01194600227E
:08198B007FC67E01DEFEDFFADB
:011993002231
:04199D007F1CDFFECE
:0119A1002223
:1018A800E4FDC2B7121982D2B730B70D12198B0DE9
:0B18B800EDD3940540F37F00227F0178
:0118C3002202
:06184800EC9015CA93FFAD
:02184E00AE07E3
:10185000E4FDFBC2B70DEE1392B712199DD2B7EE9D
:08186000C313FE0BEBB408EB0F
:01186800225D
:0815790090010AE4F0A3EFF079
:10158100E4F990010EF0FFFC7D08C2B70FBF000027
:10159100D2B70FBF00000FBF0000A2B7E433900124
:1015A1000EF0E0C43333335480FFE9C3134FF97EA7
:1015B100007F04EF1FAA0670011E4A70F6ED1D7030
:0815C100011CED4C70C4AF01E8
:0115C90022FF
:1018C400E4FC1218A87F5512184E1218480CECB4F8
:0A18D40008F87F4412184E02193A7A
:10186900E4FC1218A87F5512184EEC9015D293FF7C
:1018790012184E0CECB408F27F4412184E02193AB1
:100C7700E4FC900108F0A3F0A3F0A3F0A3F0A3F025
:100C87001218C41218A812198B7F5512184EE4FCBB
:100C97001218480CECB408F87FBE12184E121581D2
:100CA7001215797E0090010CEEF0A3EFF090010889
:100CB700E0F0A3E04FF0E07F00FE900108F0A3EF23
:100CC700F0A3E04EFEA3E0FF900108EEF0A3EFF0E3
:100CD700900101EEF0A3EFF0E490010AF0A3F0A376
:100CE700F0A3F01218691218A812198B7F55121861
:100CF7004EE4FCEC9015D293FF12184E0CECB4089E
:100D0700F27FBE12184E1215811215797E009001DE
:100D17000CEEF0A3EFF0E4900108F0A3F0900108C7
:100D2700F0EFA3F0E07F00FE900108F0A3EFF0A33F
:100D3700E04EFEA3E0FF900108EEF0A3EFF0900174
:060D470003EEF0A3EFF043
:010D4D002283
:100F9F00900101E0FEA3E0AA06FB7804CEA2E713BE
:100FAF00CE13D8F8FF900101EEF0A3EFF0EBC4548D
:100FBF00F0C4540F7C027D71FF7E00120E45AA060D
:100FCF00AB070C7DE8120E577C007D0A120E57906E
:100FDF000054EDF0AE02AF037C007D64120E577C1F
:100FEF00007D0A120E579000F2EDF0900101E0FA29
:100FFF00A3E0FB7C007D64FFAE02120EAC7C007D93
:10100F000A120EAC900017EDF07C007D0AAF03AE14
:10101F0002120EAC7C007D0A120EAC900003EDF0B4
:10102F00900101E0FEA3E0FF7C007D0A120EAC9060
:04103F000005EDF0CB
:01104300228A
:10104400900103E0FEA3E0AA06FB7804CEA2E71316
:10105400CE13D8F8FF900103EEF0A3EFF0EBC454E5
:10106400F0C4540F7C027D71FF7E00120E45AA0667
:10107400AB070C7DE8120E577C007D0A120E5790C8
:101084000055EDF0AE02AF037C007D64120E577C78
:10109400007D0A120E579000F3EDF0900103E0FA80
:1010A400A3E0FB7C007D64FFAE02120EAC7C007DED
:1010B4000A120EAC900019EDF07C007D0AAF03AE6D
:1010C40002120EAC7C007D0A120EAC900004EDF00E
:1010D400900103E0FEA3E0FF7C007D0A120EAC90B9
:0410E4000006EDF025
:0110E80022E5
:0C197600120C77120F9F120C7702104425
:1018DE007F381219597F0C1219597F011219597F2D
:0918EE00061219597F80021959F4
:10152200900109EBF0A3EAF0A3E9F0900108EFF0D3
:1015320075F008A4F0E490010CF090010CE0FFC3F8
:1015420094085032EF2440FF900108E02FFF9001F1
:101552000DF0121959900109E0FBA3E0FAA3E0F99A
:10156200A3E0F582758300120E18FF1218989001FD
:061572000CE004F080C44F
:011578002250
:0F188900F583E0FF3395E0FEEF2430FFE43EFEF1
:10189800C2A7C2A5D2A68F80D2A7121969C2A72251
:10195900C2A7C2A5C2A68F80D2A7121969C2A7229F
:101612001218987D087F0112163D7F201218987DBE
:101622000B7F0112163D7F3A1218987D0E7F011230
:0B163200163D7F3A1218987D017F02E0
:10163D00AC05AB071CEBB40107EC2480FF12195964
:0C164D00EBB40207EC24C0FF1219592274
:10171B00C2B5C2B6D2B57E01E4FBEF5E24FF92B434
:10172B00D2B6EE25E0FEC2B60BEBB408ED7E01E4BB
:10173B00FBED5E24FF92B4EE25E0FED2B6C2B60BF3
:04174B00EBB408ED06
:01174F002277
:10169F00E4FEC2B5C2B6D2B57D01FBC2B6EF5D2482
:1016AF00FF92B4D2B6ED25E0FD0BEBB408EDD2B44A
:1016BF00E4FBE4FDC2B630B4027D80EE4DFED2B63F
:1016CF00EBC394075004EEC313FE0BEBB408E3C255
:0316DF00B4AF069F
:0116E20022E5
:1017AA007C81E4FD7F8E12171BE4FAAF0412169FA8
:1017BA0074072AF582E43400F583EFF00C0C0AEA88
:0A17CA00B407E87D807F8E02171B34
:1004E700900003E0FF3395E0FE7C037DE8120E45A4
:1004F700AA06AB07900017E0FF3395E0FE7C277D47
:1005070010120E45EF2BFBEE3AFA900005E0FF3391
:1005170095E0FE7C007D64120E45EF2BFBEE3AFA68
:10052700900054E0FF3395E0FE7D0A120E45EF2B55
:10053700FFEE3AFE9000F2E0FD3395E0FCEF2DFF71
:10054700EE3C900108F0A3EFF0900004E0FF339534
:10055700E0FE7C037DE8120E45AA06AB0790001962
:10056700E0FF3395E0FE7C277D10120E45EF2BFB55
:10057700EE3AFA900006E0FF3395E0FE7C007D64DA
:10058700120E45EF2BFBEE3AFA900055E0FF33953C
:10059700E0FE7D0A120E45EF2BFFEE3AFE9000F3C8
:1005A700E0FD3395E0FCEF2DFFEE3C90010AF0A350
:1005B700EFF090000FE0FF3395E0FE7C007D6412C2
:1005C7000E45AA06AB0790000EE0FF3395E0FE7CD0
:1005D700037DE8120E45EF2BFBEE3AFA900010E090
:1005E700FF3395E0FE7C007D0A120E45EF2BFFEEF0
:1005F7003AFEA3E0FD3395E0FCEF2DFFEE3C9001C2
:100607000CF0A3EFF0900013E0FF3395E0FE7C00C1
:100617007D64120E45AA06AB07900012E0FF3395E2
:10062700E0FE7C037DE8120E45EF2BFBEE3AFA90D5
:100637000014E0FF3395E0FE7C007D0A120E45EFC3
:100647002BFFEE3AFEA3E0FD3395E0FCEF2DFFEE26
:100657003CFE90010CE0FCA3E0FD900108E0FAA34A
:10066700E0FBC39DEC6480F8EA648098500CEB9F34
:10067700EE6480F8EA64809850089000527401F0A4
:10068700D2A290010CE0FCA3E0FD90010AE0FAA3DE
:10069700E0FBC39DEC6480F8EA648098500CEB9F04
:1006A700EE6480F8EA64809850089000537401F073
:1006B700D2A090010CE0FCA3E0FD900108E0FAA3B2
:1006C700E0FBC39DEC6480F8EA6480985013EB9FCD
:1006D700EE6480F8EA6480984007E4900052F0C224
:1006E700A290010CE0FCA3E0FD90010AE0FAA3E070
:1006F700FBC39DEC6480F8EA6480985013EB9FEE8F
:100707006480F8EA6480984007E4900053F0C2A040
:0107170022BF
:07131D007F011213247F0180
:02132400A90717
:10132600900000E07012900052E0B40102C2A39057
:101336000053E0B40102C2A1E4FDFCE975F02DA45E
:10134600FFAEF0EF1FAA0670011E4A70F6C2B0E9A2
:1013560075F005A4FFAEF0EF1FAA0670011E4A70D5
:10136600F6D2B00DBD00010CED64964C70CD900028
:1013760000E0B40112900052E0B40102D2A3900042
:0713860053E0B40102D2A103
:01138D00223D
:10190D00900000E0FF7004D2A3D2A1EFB40104C295
:04191D00A3C2A1229E
:101824001204E7900052E0FF7004A3E06015EFB4E7
:1018340001057F02121324900053E0B401057F04D4
:041844001213242235
:10175000900052E07009A3E070057F0112132490FD
:1017600000FAE064016017900050E0FF12027890E8
:0F1770000050E0C3940C5003E004F0121934222F
:1016E3009000FAE06401602F900002E0700374023E
:1016F300F0900002E0B40102E4F0900002E0700513
:101703007F08121959900002E0B402087F0C1219E5
:08171300597401F012192122A2
:1017FD009000FAE06401601E900016E004F0900085
:10180D00517403F07F01121959900016E0B40403CE
:07181D007401F012192122F1
:1014C7009000FAE064016052900016E064037047F0
:1014D700900051E0FF6404600EEF64076009EF6459
:1014E7000B6004EFB40E08900051E014F08028EF71
:1014F70064066004EFB40D09900051E024FEF0800B
:1015070016EFB40A089000517407F0800AEFB4038D
:0B15170006900051740EF012193422EF
:10138E009000FAE064016066900016E0FFB4020F70
:10139E0090001AE014F0E0C3940150037401F0EFD2
:1013AE0064037047900051E0FF6403600EEF640623
:1013BE006009EF640A6004EFB40D08900051E00478
:1013CE00F08028EF64046004EFB40B09900051E044
:1013DE002402F08016EFB40708900051740AF080D2
:0F13EE000AEFB40E069000517403F01219342266
:100D4E009000FAE064017003020E17900016E0FFA7
:100D5E00B4020F90001AE004F0E0D3940C40037438
:100D6E000CF0EF64036003020E14900051E0FFB428
:100D7E00030690000EE004F0EFB4040690000FE0BE
:100D8E0004F0EFB40606900010E004F0EFB407068E
:100D9E00900011E004F0EFB40A06900012E004F0A7
:100DAE00EFB40B06900013E004F0EFB40D069000C4
:100DBE0014E004F0EFB40E06900015E004F0E4FF2A
:100DCE00E4FEEF25E025E0240EF582E43400F58301
:100DDE00E5822EF582E43583F583E0D36480948931
:100DEE00401AEF25E025E0240EF582E43400F58369
:100DFE00E5822EF582E43583F583E4F00EEEB4043D
:090E0E00C10FEFB402BA1219344D
:010E170022B8
:100EE2009000FAE064017003020F9E900016E06425
:100EF200036003020F98900051E0FFB403069000D4
:100F02000EE014F0EFB4040690000FE014F0EFB41A
:100F12000606900010E014F0EFB40706900011E00E
:100F220014F0EFB40A06900012E014F0EFB40B06CE
:100F3200900013E014F0EFB40D06900014E014F0EA
:100F4200EFB40E06900015E014F0E4FFE4FEEF2586
:100F5200E025E0240EF582E43400F583E5822EF5E7
:100F620082E43583F583E0C364809480501BEF25CF
:100F7200E025E0240EF582E43400F583E5822EF5C7
:100F820082E43583F5837409F00EEEB404C00FEFEA
:0C0F9200B402B912193A9000FA7401F090
:010F9E002230
:1017D4009000FAE064016020900000E0045401F0FD
:1017E400700312131D900000E0B40109C2A3C2A14A
:0917F4007F0712132412192122AF
:1018F7009000FAE06401600D90001A7401F0900006
:06190700FAF0121927227C
:101947009000FAE06401600990001A740CF0121913
:0219570021224B
:1013FD00900100E0B4A2031216E3900100E0B46284
:10140D00031217FD900100E0B402031214C79001FE
:10141D0000E0B4C20312138E900100E0B4900312E9
:10142D000D4E900100E0B4A803120EE2900100E011
:10143D00B42203121750900100E0B4E2031217D446
:10144D00900100E0B498031218F7900100E0B4B0D9
:05145D000312194722F3
:09199400D2A8D288D2AFD2B2224F
:0300030002088769
:10088700C0E0C0F0C083C082C0D075D000C000C037
:0D08970001C002C003C004C005C006C007B8
:1008A400E4F930B20302096EFDFC20B210C3ED94EA
:1008B400E8EC940350070DBD00010C80ED7C007D35
:1008C4000030B210C3ED94F4EC940150070DBD0058
:1008D400010C80ED790090010FE4F07C007D003084
:1008E400B20302098420B210C3ED9432EC94005098
:1008F400070DBD00010C80ED900112E4F0A3F0128D
:100904001982900111E025E0F0900110E033F030FD
:10091400B21F7C007D0030B210C3ED94C8EC94008B
:1009240050070DBD00010C80ED900112E4F0A3040A
:10093400F0900112E0FEA3E0FF900110E04EF0A35E
:10094400E04FF090010FE004F0E0C39408408C9075
:100954000110A3E0FF74F529F582E43400F583EF78
:10096400F009E9640460030208DA9000F8E0F4FF97
:100974009000F7E0FEB50705900100EEF01213FDBC
:10098400D007D006D005D004D003D002D001D000C7
:0B099400D0D0D082D083D0F0D0E03271
:101297007D047F0212163D900003E0FCC364809436
:1012A700E440047F078004EC2430FF121898900074
:1012B70005E02430FF1218987D077F0212163D9033
:1012C7000054E02430FF1218989000F2E02430FF19
:1012D7001218987D0A7F0212163D900004E0FCC3A5
:1012E700648094E440047F078004EC2430FF1218E4
:1012F70098900006E02430FF1218987D0D7F0212A7
:10130700163D900055E02430FF1218989000F3E046
:061317002430FF021898CB
:101659007D017F0112163DE4FF1216127F20121838
:10166900987F201218987D037F0212163D7F011280
:1016790018987D097F0212163D7F021218987D067F
:101689007F0212163D7F2E1218987D0C7F021216CA
:061699003D7F2E021898AF
:100B970090000DE0FFC4540F2430F9EF540F2430B8
:100BA700FA7D027F0112163DAF01121898AF0212AB
:100BB70018987D047F0112163D90000BE0FFC45486
:100BC7000F2430F9EF540F2430FAAF01121898FFB1
:100BD7001218987D067F0112163D90000AE0FFC4A7
:100BE700540F2430F9EF540F2430FAAF011218983C
:100BF700FF121898900009E0FFC4540F2430F9EF52
:100C0700540F2430FA7D097F0112163DE9B43104EF
:100C17007F31800AE9B432047F3280027F201218C4
:100C270098900009E0540F2430FAFF1218987D0CB1
:100C37007F0112163D900008E0FFC4540F2430F9DD
:100C4700EF540F2430FAAF01121898FF1218987D4D
:100C57000F7F0112163D900007E0FFC4540F2430A8
:100C6700F9EF540F2430FAAF01121898FF021898C1
:10120D0090001AE0FF75F00A84F9EF75F00A84AAD0
:10121D00F0E0B401089000187404F0800FEF900016
:10122D0018B40C057403F080037405F07D017F0183
:10123D0012163D7F201216127F47121898E924309E
:10124D00FF121898EA2430FF1218987D047F0212BD
:10125D00163D7F011218987D0A7F0212163D7F02FE
:10126D001218987D107F0212163D900018E0FF12A3
:10127D0018987D077F0212163D7F2E1218987D0D4E
:0A128D007F0212163D7F2E02189812
:100006007D027F0112163D90001AE075F00CA424C3
:1000160056F582E4340012188990001AE075F00C47
:10002600A42457F582E4340012188990001AE0756A
:10003600F00CA42458F582E4340012188990001AB2
:10004600E075F00CA42459F582E434001218899066
:10005600001AE075F00CA4245AF582E43400121854
:100066008990001AE075F00CA4245BF582E4340054
:100076001218897D097F0112163D90001AE075F06D
:100086000CA4245CF582E4340012188990001AE06E
:1000960075F00CA4245DF582E434001218897D0CF9
:1000A6007F0112163D90001AE075F00CA4245EF54F
:1000B60082E4340012188990001AE075F00CA4242A
:1000C6005FF582E434001218897D0F7F0112163D18
:1000D60090001AE075F00CA42460F582E434001256
:1000E600188990001AE075F00CA42461F582E434B6
:1000F600001218897D057F0212163D90001AE02530
:10010600E025E0241CF582E43400F583E0FEA3E05C
:10011600FF7C037DE8120EAC7C007D0A120EACED6E
:100126002430FFE43CFE12189890001AE025E025E2
:10013600E0241CF582E43400F583E0FEA3E0FF7CB6
:10014600007D64120EAC7C007D0A120EACED2430EC
:10015600FFE43CFE1218987D087F0212163D9000BF
:100166001AE025E025E0241CF582E43400F583E05E
:10017600FEA3E0FF7C007D0A120EAC7C007D0A1215
:100186000EACED2430FFE43CFE12189890001AE005
:1001960025E025E0241CF582E43400F583E0FEA387
:1001A600E0FF7C007D0A120EACED2430FFE43CFE3D
:1001B6001218987D0B7F0212163D90001AE025E07A
:1001C60025E0241EF582E43400F583E0FEA3E0FF7B
:1001D6007C037DE8120EAC7C007D0A120EACED2489
:1001E60030FFE43CFE12189890001AE025E025E066
:1001F600241EF582E43400F583E0FEA3E0FF7C00D4
:100206007D64120EAC7C007D0A120EACED2430FF2C
:10021600E43CFE1218987D0E7F0212163D90001ADD
:10022600E025E025E0241EF582E43400F583E0FEB7
:10023600A3E0FF7C007D0A120EAC7C007D0A120E44
:10024600ACED2430FFE43CFE12189890001AE0252D
:10025600E025E0241EF582E43400F583E0FEA3E009
:10026600FF7C007D0A120EACED2430FFE43CFE025A
:020276001898D6
:10099F007D017F0112163D7F201218987F201218BB
:1009AF00987F201218987D047F0112163D7F4D12FB
:1009BF0018987F411218987F581218987F20121894
:1009CF00987F201218987F201218987F201218985D
:1009DF007D0B7F0112163D7F4D1218987F4912181B
:1009EF00987F4E1218987F201218987F201218980F
:1009FF007F201218987F201218987D057F021216FB
:100A0F003D7F2E1218987D0C7F0212163D7F2E12FD
:100A1F0016367F201218987F201218987D037F02B8
:100A2F0012163D90000EE02430FF121898A3E02418
:100A3F0030FF1218987D067F0212163DA3E0243076
:100A4F00FF121898A3E02430FF1218987D087F0238
:100A5F0012163D7F201218987F201218987D0A7F5A
:100A6F000212163DA3E02430FF121898A3E02430A1
:100A7F00FF1218987D0D7F0212163DA3E02430FF60
:100A8F00121898A3E02430FF1218987D0F7F0212DE
:0C0A9F00163D7F201218987F2002189846
:10177F0012196920A424900000E0045401F0C2A3C0
:10178F00C2A1700312131D900000E0B40109C2A39F
:0B179F00C2A17F071213241219272299
:0319A20002177FAA
:1010E900900000E064017003021180900052E064F6
:1010F900016006A3E064017031900003E0D36480CD
:1011090094874006900105E0606D900004E0D36487
:101119008094874006900106E0605C900107E070CA
:1011290003121750900107E004F0900052E0700894
:10113900A3E07004900107F0900007E0FF540370EA
:1011490004900107F0EFC4540F20E01A900007E063
:10115900540F75F00A84E5F0700C900001E07006F8
:10116900E004F0121750900008E0C45401D3940031
:081179004005E4900001F022A2
:101462009000F2E07006900054E06009900105E0FF
:101472007003E004F09000F3E07006900055E06025
:1014820009900106E07003E004F0900003E0D364E9
:101492008094874012900105E0700C900003740262
:1014A200F09000057405F0900004E0D36480948706
:1014B2004012900106E0700C9000047402F090005B
:0514C200067405F02294
:02027800A907D4
:10027A00E9640C60030203147F01EF25E025E02402
:10028A0020F582E43400F583E0FCA3E0FDEF25E0ED
:10029A0025E0241CF582E43400F583ECF0A3EDF0AC
:1002AA00EF25E025E02422F582E43400F583E0FC22
:1002BA00A3E0FDEF25E025E0241EF582E43400F5F5
:1002CA0083ECF0A3EDF0E4FEEF75F00CA42462F5E4
:1002DA0082E43400F583E5822EF582E43583F583E2
:1002EA00E0FDEF75F00CA42456F582E43400F583A2
:1002FA00E5822EF582E43583F583EDF00EEEB40C3B
:10030A00C70FEF640C6003020284900005E0FF331C
:10031A0095E0FE7C007D64120E45AA06AB079000AC
:10032A0003E0FF3395E0FE7C037DE8120E45EF2BD8
:10033A00FBEE3AFA900054E0FF3395E0FE7C007D34
:10034A000A120E45EF2BFFEE3AFE9000F2E0FD3363
:10035A0095E0FCEF2DFFEE3CFEE925E025E0241CAC
:10036A00F582E43400F583EEF0A3EFF0900006E0A6
:10037A00FF3395E0FE7C007D64120E45AA06AB07AA
:10038A00900004E0FF3395E0FE7C037DE8120E4501
:10039A00EF2BFBEE3AFA900055E0FF3395E0FE7C36
:1003AA00007D0A120E45EF2BFFEE3AFE9000F3E0B5
:1003BA00FD3395E0FCEF2DFFEE3CFEE925E025E05C
:1003CA00241EF582E43400F583EEF0A3EFF09000EA
:1003DA000DE0FFC4540FFEE975F00CA42456F58213
:1003EA00E43400F583EEF0EF540FFFE975F00CA446
:1003FA002457F582E43400F583EFF090000BE0FF18
:10040A00C4540FFEE975F00CA42458F582E43400B4
:10041A00F583EEF0EF540FFFE975F00CA42459F5BB
:10042A0082E43400F583EFF090000AE0FFC4540F31
:10043A00FEE975F00CA4245AF582E43400F583EE43
:10044A00F0EF540FFFE975F00CA4245BF582E43455
:10045A0000F583EFF0900009E0FFC4540FFEE97540
:10046A00F00CA4245CF582E43400F583EEF0EF543A
:10047A000FFFE975F00CA4245DF582E43400F583DE
:10048A00EFF0900008E0FFC4540FFEE975F00CA4E9
:10049A00245EF582E43400F583EEF0EF540FFFE9B1
:1004AA0075F00CA4245FF582E43400F583EFF09034
:1004BA000007E0FFC4540FFEE975F00CA42460F5B0
:1004CA0082E43400F583EEF0EF540FFFE975F00C87
:0C04DA00A42461F582E43400F583EFF007
:0104E60022F3
:100AAB001219761219941218DE7BFF7A1579DAE493
:100ABB00FF1215227BFF7A1579E27F011215227B3B
:100ACB00FF7A1579EA7F021215227BFF7A1579F2EC
:100ADB007F031215227BFF7A1579FA7F04121522F8
:100AEB007BFF7A1679027F051215227BFF7A167926
:100AFB000A7F071215227F0312131F7F0212132482
:100B0B001219761219A212190D1214621217AA12C7
:100B1B0019A2121824E49000FAF01219A2900016F0
:100B2B00E0B40114E49000FAF0120B971219A21220
:100B3B0016591219A21212971219A2900016E0B4AC
:100B4B000211E49000FAF012120D1219A212000613
:100B5B001219A21219A2900016E0B4031AE4900025
:100B6B00FAF012099F1219A2900051E0FD7F0212B8
:100B7B00163D7F201218981219A2900107E0B403BA
:0C0B8B0002E4F01210E91219A2020B0B98
:10118D00020AABE493A3F8E493A34003F68001F2C3
:10119D0008DFF48029E493A3F85407240CC8C33363
:1011AD00C4540F4420C8834004F456800146F6DF32
:1011BD00E4800B0102040810204080900718E47EA3
:1011CD00019360BCA3FF543F30E509541FFEE49327
:1011DD00A360010ECF54C025E060A840B8E493A3EE
:1011ED00FAE493A3F8E493A3C8C582C8CAC583CA19
:1011FD00F0A3C8C582C8CAC583CADFE9DEE780BED1
:010886000071
:100E1800BB010CE58229F582E5833AF583E022508F
:100E280006E92582F8E622BBFE06E92582F8E222D9
:0D0E3800E58229F582E5833AF583E49322F3
:100E4500EF8DF0A4A8F0CF8CF0A428CE8DF0A42EC1
:020E5500FE227B
:100E5700BC000BBE0029EF8DF084FFADF022E4CC7F
:100E6700F875F008EF2FFFEE33FEEC33FCEE9DEC48
:100E7700984005FCEE9DFE0FD5F0E9E4CEFD22ED8E
:100E8700F8F5F0EE8420D21CFEADF075F008EF2FD8
:100E9700FFED33FD4007985006D5F0F222C398FDC9
:050EA7000FD5F0EA2266
:100EAC00C2D5EC30E709B2D5E4C39DFDE49CFCEE61
:100EBC0030E715B2D5E4C39FFFE49EFE120E57C374
:100ECC00E49DFDE49CFC8003120E5730D507C3E46F
:060EDC009FFFE49EFE22D0
:00000001FF
