:030000000208CF24
:0C08CF00787FE4F6D8FD75811F02091641
:100D35001F11111F11111F00080F120F0A1F0202A8
:080D45000F090F090F090B1142
:100CFD00070A0000000000000004120000000001BF
:0E0D0D00160001170001080101090101110182
:0C0D7E007FB17EF07D02DDFEDEFADFF6C4
:010D8A002246
:0C0D8B007F027EA07D0EDDFEDEFADFF6AA
:010D97002239
:080D98007F047E55DEFEDFFA48
:010DA0002230
:100D1C007F38120D6E7F0C120D6E7F01120D6E7FDF
:090D2C0006120D6E7F80020D6EAF
:080B78008F188B198A1A891BE2
:100B8000E51875F008A4F518E4F51CE51C244025CB
:100B900018F51DFF120D6EAB19AA1AA91B851C8230
:100BA000758300120C8CFF120D5E051CE51CC394AE
:030BB0000840D822
:010BB300221F
:100D5E00C2A7C2A5D2A68F80D2A7120D8BC2A72280
:100D6E00C2A7C2A5C2A68F80D2A7120D8BC2A72280
:070CDC00120D5E7D077F028F
:100CE300AC05AB071CBB0107EC2480FF120D6EBBE8
:0A0CF3000207EC24C0FF120D6E2270
:100C2600C2B5C2B6D2B57E01E4FBEF5E24FF92B434
:100C3600D2B6EE25E0FEC2B60BBB08EE7E01E4FBA3
:100C4600ED5E24FF92B4EE25E0FED2B6C2B60BBB33
:020C560008EEA6
:010C58002279
:100AB800E4FEC2B5C2B6D2B57D01FBC2B6EF5D2475
:100AC800FF92B4D2B6ED25E0FD0BBB08EED2B4E43C
:100AD800FBE4FDC2B630B4027D80ED4206D2B6EB2F
:100AE800C394075004EEC313FE0BBB08E4C2B4AFB3
:010AF80006F7
:010AF90022DA
:100AFA00E4FD7F8E120C267D307F80120C267D50FD
:100B0A007F82120C267D107F84120C267D297F8617
:100B1A00120C267D037F88120C267D077F8A120C11
:0F0B2A00267D157F8C120C267D807F8E020C2677
:100CB9007C81E4FD7F8E120C26E4FAAF04120AB897
:100CC900740A2AF8A6070C0C0ABA07EF7D807F8EF2
:030CD900020C26E4
:100B39007D077F01120CE37F44120D5E7F41120D88
:100B49005E7F54120D5E7F45120D5E7D067F021297
:100B59000CE3E4FF120D5E7D097F02120CE37F01B5
:0F0B6900120D5E7D0C7F02120CE37F02020D5E07
:100C59007D077F01120CE37F54120D5E7F49120D4F
:100C69005E7F4D120D5E7F45120CDC7F3A120D5EE0
:100C79007D0A7F02120CE37F3A120D5E7D0D7F0221
:030C8900020CE377
:10095B00E510C4540F2430FAE510540F2430F97D00
:10096B00027F02120CE37F32120D5E7F30120D5E9E
:10097B00AF02120D5EAF01120CDCE50EC4540F2456
:10098B0030FAE50E540F2430F9BA31047F3180026E
:10099B007F20120D5EAF01120D5E7D0A7F02120CDD
:1009AB00E3E50DC4540F2430FAE50D540F2430F950
:1009BB00BA30047F208002AF02120D5EAF01120D20
:1009CB005E7D0F7F02120CE3E50F540F2430F9FF0D
:0309DB00020D5EAC
:1009DE00E50CC4540F2430FAE50C540F2430F97D85
:1009EE00057F02120CE3BA31047F318009BA32045A
:1009FE007F3280027F20120D5EE50C540F2430F9F9
:100A0E00FF120D5E7D087F02120CE3E50BC4540F3E
:100A1E002430FAE50B540F2430F9BA30047F2080CD
:100A2E0002AF02120D5EAF01120D5E7D0B7F021240
:100A3E000CE3E50AC4540F2430FAE50A540F2430AF
:100A4E00F9EA64306005AF02120D5EAF01020D5E71
:100BB400E516B4A219E509D394014012E5087003BF
:100BC400750802E508B40103E4F508E4F50905092C
:100BD400E50870057F08120D6EE508B402087F0C65
:0C0BE400120D6E750801120D7E020D7ED0
:100BF000E516B46219E509D394014012E5087003C3
:100C0000750802E508B40103E4F508E4F5090509EF
:100C1000E508B40103751701E508B40206E4F51709
:060C2000750801020D7EC3
:100D4D00E516B4A203120BB4E516B46203120BF050
:010D5D002273
:090DA100D2A8D288D2AFD2B2224E
:03000300020800F0
:10080000C0E0C083C082C0D075D000C000C002C0AC
:0908100003C004C005C006C007C6
:10081900E4FD30B2030208ACF582F58320B20EC3C1
:10082900E58294E8E58394035003A380EF900000E8
:1008390030B20EC3E58294F4E58394015003A3809A
:10084900EF7D00E4FC90000020B26420B20EC3E505
:10085900829432E58394005003A380EF751E0075DE
:100869001F00120D98EB25E0FBEA33FA30B21A901B
:10087900000030B20EC3E58294C8E58394005003AA
:10088900A380EF751E00751F01E51E4202E51F4298
:10089900030CBC08B0AF0374122DF8A6070DED6464
:0F08A9000470A0E515F4B51403851416120D4D57
:1008B800D007D006D005D004D003D002D000D0D0C5
:0708C800D082D083D0E032A2
:100A5E00120D1C120DA17BFF7A0D793DE4FF120BD6
:100A6E00787BFF7A0D79457F01120B787BFF7A0D2B
:100A7E0079357F02120B78E5177014E511B4010970
:100A8E00120D1C120B39751102120CB912095BE50D
:100A9E0017B401E3E511B40209120D1C120C5975BD
:0A0AAE001101120CB91209DE80CD0F
:1008DB00020A5EE493A3F8E493A34003F68001F2CB
:1008EB0008DFF48029E493A3F85407240CC8C3331E
:1008FB00C4540F4420C8834004F456800146F6DFED
:10090B00E4800B0102040810204080900CFDE47E73
:10091B00019360BCA3FF543F30E509541FFEE493E1
:10092B00A360010ECF54C025E060A840B8E493A3A8
:10093B00FAE493A3F8E493A3C8C582C8CAC583CAD3
:10094B00F0A3C8C582C8CAC583CADFE9DEE780BE8B
:010D1B0000D7
:100C8C00BB010CE58229F582E5833AF583E022501D
:100C9C0006E92582F8E622BBFE06E92582F8E22267
:0D0CAC00E58229F582E5833AF583E4932281
:00000001FF
