:03000000020AEF02
:0C0AEF00787FE4F6D8FD758116020858E7
:1009FF004861206861206861206861004C6F616404
:100A0F00696E672E2E2E004A555354204F4B2121CD
:020A1F002100B4
:100858007508FF750909750AFF120A5D7D017F0198
:10086800120A437BFF7A0A790B1209DAAB08AA0944
:10087800A90AE4FF12098BAB08AA09A90AE4FF1226
:10088800092E7D017F02120A43AB08AA09A90A12A0
:1008980009DA7D017F01120A437BFF7A0A79161271
:0408A80009DA80C821
:0C0AE2007F027EA07D0EDDFEDEFADFF656
:010AEE0022E5
:100A5D007F38120AB57F0C120AB57F01120AB57FD5
:090A6D0006120AB57F80020AB5E9
:0808F2008F108B118A1289138B
:1008FA00E51075F008A4F510E4F514E51424402574
:10090A0010F515FF120AB5AB11AA12A913851482A4
:10091A00758300120819FF120AA50514E514C39479
:03092A000840D8AA
:01092D0022A7
:100AA500C2A7C2A5D2A68F80D2A7120AE2C2A722E8
:100AB500C2A7C2A5C2A68F80D2A7120AE2C2A722E8
:100A4300AC05AB071CBB0107EC2480FF120AB5BB46
:0A0A53000207EC24C0FF120AB522CE
:1009DA008B0B8A0C890DAB0BAA0CA90D12080060AF
:1009EA0013050DE50D7002050C14F9120800FF122B
:0509FA000AA580E222C5
:100A8F00759850758920758780758DF3758BF3D2A6
:060A9F00ACD2AFD28E22A2
:03002300020AFBD3
:0B0AFB00859916C2983099FDC299320F
:050AD400120AD9D2A1B5
:080AD9007F017E02DEFEDFFA60
:010AE10022F2
:0F0AC500D2A0120AD4C2A0120AD9C2A1020AD921
:0A0B0600C2A0120AD4D2A0020AD93C
:0408AC00AB07A905E8
:1008B000E4FDFAEBC4131313540124FF92A0EB25BB
:1008C000E0FB120AD4C2A1120AD90DBD08E5D2A0DC
:1008D000120AD9D2A130A012B9010F0AEAD394C8E2
:1008E00040F3C2A1120AD97F0022C2A1120AD97F05
:0108F0000106
:0108F10022E4
:1009B400E4FDFCD2A0120AD9D2A1120AD9EC25E096
:1009C400FCA2A0E4334204120AD9C2A1120AD90D2E
:0509D400BD08E5AF04C1
:0109D90022FB
:100A7600D3EF9400EE9400400F7D267C82DCFEDDF1
:080A8600FAEF1F70EB1E80E87F
:010A8E002245
:100A21008F0FAC05120AC57D017FA01208AC7D01B4
:100A3100AF0F1208ACAF04E4FD1208AC120B0602B2
:020A41000AE2C7
:02096000AC07E2
:10096200120AC57D017FA01208ACAF047D011208F6
:10097200AC120AC57D017FA11208AC1209B4AC0702
:08098200120B06120AE2AF0499
:01098A00224A
:10098B008F0B8B0C8A0D890EAB0CAA0DA90E1208BE
:10099B0000FD6014AF0B050B120A217401250EF537
:0909AB000EE4350DF50D80E0228B
:10092E008F0B8B0C8A0D890EAB0CAA0DA90E12081B
:10093E0000601EAF0B050B120960AB0CAA0DA90EC1
:10094E00EF1208467401250EF50EE4350DF50D80F7
:02095E00D7229E
:10080000BB010689828A83E0225002E722BBFE02F6
:09081000E32289828A83E4932229
:10081900BB010CE58229F582E5833AF583E0225094
:1008290006E92582F8E622BBFE06E92582F8E222DE
:0D083900E58229F582E5833AF583E49322F8
:10084600BB010689828A83F0225002F722BBFE0191
:02085600F3228B
:00000001FF
