:030000000208E211
:0C08E200787FE4F6D8FD75812402092916
:100EE4001F11111F11111F00080F120F0A1F0202F8
:080EF4000F090F090F090B1192
:100E5F00070C000000000000000415000000000156
:100E6F001900011A01010801011400010900010A0A
:070E7F0001010B0101130149
:0C0F1C007FCD7EDC7D04DDFEDEFADFF61A
:010F280022A6
:0C0F29007F017EAF7D07DDFEDEFADFF603
:010F35002299
:0C0F36007FF37EA37D01DDFEDEFADFF616
:010F4200228C
:0C0F43007F027EA07D0EDDFEDEFADFF6F0
:010F4F00227F
:080F50007F047E55DEFEDFFA8E
:010F58002276
:100ECB007F38120F0C7F0C120F0C7F01120F0C7F4F
:090EDB0006120F0C7F80020F0CBF
:080BE1008F1B8B1C8A1D891E6D
:100BE900E51B75F008A4F51BE4F51FE51F24402556
:100BF9001BF520FF120F0CAB1CAA1DA91E851F8215
:100C0900758300120E07FF120EFC051FE51FC39422
:030C19000840D8B8
:010C1C0022B5
:100EFC00C2A7C2A5D2A68F80D2A7120F43C2A72227
:100F0C00C2A7C2A5C2A68F80D2A7120F43C2A72226
:070EAA00120EFC7D077F0220
:100EB100AC05AB071CBB0107EC2480FF120F0CBB78
:0A0EC1000207EC24C0FF120F0C2200
:100D3B00C2B5C2B6D2B57E01E4FBEF5E24FF92B41E
:100D4B00D2B6EE25E0FEC2B60BBB08EE7E01E4FB8D
:100D5B00ED5E24FF92B4EE25E0FED2B6C2B60BBB1D
:020D6B0008EE90
:010D6D002263
:100AE400E4FEC2B5C2B6D2B57D01FBC2B6EF5D2449
:100AF400FF92B4D2B6ED25E0FD0BBB08EED2B4E410
:100B0400FBE4FDC2B630B4027D80ED4206D2B6EB02
:100B1400C394075004EEC313FE0BBB08E4C2B4AF86
:010B240006CA
:010B250022AD
:100B2600E4FD7F8E120D3B7D307F80120D3B7D50A4
:100B36007F82120D3B7D107F84120D3B7D297F86BF
:100B4600120D3B7D037F88120D3B7D077F8A120DB8
:0F0B56003B7D157F8C120D3B7D807F8E020D3B0A
:100E87007C81E4FD7F8E120D3BE4FAAF04120AE485
:100E9700740C2AF8A6070C0C0ABA07EF7D807F8E20
:030EA700020D3BFE
:100B65007D077F01120EB17F44120EFC7F41120EEC
:100B7500FC7F54120EFC7F45120EFC7D067F02128F
:100B85000EB1E4FF120EFC7D097F02120EB17F014A
:0F0B9500120EFC7D0C7F02120EB17F02020EFCCD
:100D6E007D077F01120EB17F54120EFC7F49120EC9
:100D7E00FC7F4D120EFC7F45120EAA7F3A120EFC1E
:100D8E007D0A7F02120EB17F3A120EFC7D0D7F029C
:030D9E00020EB191
:10096E00E512C4540F2430FAE512540F2430F97DE9
:10097E00027F02120EB17F32120EFC7F30120EFC7D
:10098E00AF02120EFCAF01120EAAE510C4540F24D2
:10099E0030FAE510540F2430F9BA31047F31800259
:1009AE007F20120EFCAF01120EFC7D0A7F02120E8A
:1009BE00B1E50FC4540F2430FAE50F540F2430F96B
:1009CE00BA30047F208002AF02120EFCAF01120E6D
:1009DE00FC7D0F7F02120EB1E511540F2430F9FF8A
:0309EE00020EFCFA
:1009F100E50EC4540F2430FAE50E540F2430F97D6E
:100A0100057F02120EB1BA31047F318009BA320476
:100A11007F3280027F20120EFCE50E540F2430F944
:100A2100FF120EFC7D087F02120EB1E50DC4540FBA
:100A31002430FAE50D540F2430F9BA30047F2080B8
:100A410002AF02120EFCAF01120EFC7D0B7F0212EF
:100A51000EB1E50CC4540F2430FAE50C540F2430C8
:100A6100F9EA64306005AF02120EFCAF01020EFC20
:100C9400E519B4A219E50BD394014012E50A7003D7
:100CA400750A02E50AB40103E4F50AE4F50B050B41
:100CB400E50A70057F08120F0CE50AB402087F0CE0
:090CC400120F0C750A01020F1C4D
:100BA400E519B46219E50BD394014012E50A700308
:100BB400750A02E50AB40103E4F50AE4F50B050B32
:100BC400E50AB40102051AE50AB40205051A750A14
:0D0BD40001120F36E51AB40303751A012251
:100D0600E519B42219E50BD394024012E50A7003E3
:100D1600750A02E50AB40103E4F50AE4F50B050BCE
:100D2600E50A7003750901E50AB40206E4F50975DA
:050D36000A01020F1C80
:100C5900E519B40219E50BD394014012E50A7003B2
:100C6900750A02E50AB40103E4F50AE4F50B050B7C
:100C7900E50A70021508E50AB402051508750A01A6
:0B0C8900120F1CE50870037508102214
:100C1D00E519B45219E50BD394014012E50A70039E
:100C2D00750A02E50AB40103E4F50AE4F50B050BB8
:100C3D00E50A70020508E50AB402050508750A0102
:0C0C4D00120F1CE508B411037508012209
:100DA100E519B4D019E50BD394014012E50A70039B
:100DB100750A02E50AB40103E4F50AE4F50B050B33
:100DC100E50A70021514E50AB402051514750A0145
:030DD100020F1CF2
:100DD400E519B4D019E50BD394014012E50A700368
:100DE400750A02E50AB40103E4F50AE4F50B050B00
:100DF400E50A70020514E50AB402050514750A0132
:030E0400020F1CBE
:100E3400E519B4E219E50BD394014012E50A7003F5
:100E4400750A02E50AB40103E4F50AE4F50B050B9F
:0B0E5400E50AB40203750A01020F3624
:100CCD00E519B4A203120C94E519B46203120BA436
:100CDD00E519B4E203120E34E519B42203120D0620
:100CED00E519B40203120C59E519B45203120C1D87
:090CFD00E519B4D0031200002235
:090F5900D2A8D288D2AFD2B22294
:03000300020800F0
:10080000C0E0C0F0C083C082C0D075D000C000C0BE
:0D08100001C002C003C004C005C006C0073F
:10081D00E4FD30B2030208BBFBFA20B210C3EB9427
:10082D00E8EA940350070BBB00010A80ED7A007BC8
:10083D000030B210C3EB94F4EA940150070BBB00E7
:10084D00010A80ED7D00E4FC7A007B0020B26B2074
:10085D00B210C3EB9432EA940050070BBB00010AAF
:10086D0080ED752300752400120F50E52225E0F56B
:10087D0022E52133F52130B21D7A007B0030B21014
:10088D00C3EB94C8EA940050070BBB00010A80ED3E
:10089D00752300752401E5244222E52342210CBC79
:1008AD0008A674152DF8A6220DED64047098E518B0
:0A08BD00F4B51703851719120CCDCE
:1008C700D007D006D005D004D003D002D001D00085
:0B08D700D0D0D082D083D0F0D0E0322F
:100A7100120ECB120F597BFF7A0E79ECE4FF120BA9
:100A8100E17BFF7A0E79F47F01120BE17BFF7A0E95
:100A910079E47F02120BE1E51AB40114E513B40104
:100AA10009120ECB120B65751302120E8712096E15
:100AB100E51AB40214E513B40209120ECB120D6E3D
:100AC100751301120E871209F1E509B401C97F0FEF
:100AD100120F0CE50960C0AD087F02120EB1120FB2
:030AE1003680F06C
:1008EE00020A71E493A3F8E493A34003F68001F2A5
:1008FE0008DFF48029E493A3F85407240CC8C3330B
:10090E00C4540F4420C8834004F456800146F6DFD9
:10091E00E4800B0102040810204080900E5FE47EFC
:10092E00019360BCA3FF543F30E509541FFEE493CE
:10093E00A360010ECF54C025E060A840B8E493A395
:10094E00FAE493A3F8E493A3C8C582C8CAC583CAC0
:10095E00F0A3C8C582C8CAC583CADFE9DEE780BE78
:010E8600006B
:100E0700BB010CE58229F582E5833AF583E02250A0
:100E170006E92582F8E622BBFE06E92582F8E222EA
:0D0E2700E58229F582E5833AF583E4932204
:00000001FF
