:1000DD004C696E6B696E672E2E2E0020202020201D
:1000ED002020202020202020202020202020202003
:0100FD000002
:10002600120151E4F50812011F7D017F011200FE45
:100036007BFF7A0079DD12008D7BFF7A0079DD1275
:1000460000B8E509643A702AE50A64437024E50BB2
:10005600B44C1FE50CB4531A7D017F021200FE7BDF
:10006600FF7A0079E812008DE4F50875093BF5087A
:1000760080D07D017F021200FE7B007A0079091292
:07008600008DE4F50880BBCA
:0300000002019466
:0C019400787FE4F6D8FD75811F0200267C
:0C0187007F027EA07D0EDDFEDEFADFF6BA
:010193002249
:10011F007F381201777F0C1201777F011201777FF1
:09012F00061201777F80020177BE
:10016700C2A7C2A5D2A68F80D2A7120187C2A72293
:10017700C2A7C2A5C2A68F80D2A7120187C2A72293
:1000FE008F1D8D1E151EE51DB40108E51E2480FF03
:10010E00120177E51DB40208E51E24C0FF12017727
:01011E0022BE
:10008D008B1D8A1E891FAB1DAA1EA91F120138FFC9
:10009D00643B6016EF6013051FE51F7002051E140B
:0B00AD00F9120138FF12016780DC220D
:10015100759850758920758780758DF3758BF3D2ED
:06016100ACD2AFD28E22E9
:0801A0008F993099FDC29922EC
:1000B8008B1D8A1E891FAB1DAA1EA91F120138603D
:1000C80013051FE51F7002051E14F9120138FF12EF
:0500D80001A080E222FE
:03002300020003D5
:10000300C0E0C0D075D000C000C007C298AF0805DB
:100013000874092FF8A699D007D000D0D0D0E032C9
:10013800BB010689828A83E0225002E722BBFE02C5
:09014800E32289828A83E49322F8
:00000001FF
