:030000000208955E
:0C089500787FE4F6D8FD758109020800A8
:100883003F065B4F666D7D077F6F0020406080A051
:02089300C0E0C3
:10080000E4FDFCF508F5090509E50970020508C3D2
:100810009458E5086480948240050DBD00010CEDFC
:10082000640A4C7002FCFDE4FEFFC3EF9408EE94F2
:100830000050D4EF90088D93F590EF64024E700E47
:1008400074832DF58274083CF583E493F580D3ED31
:100850009403EC6480948040050DBD00010CEF64AE
:10086000064E700690088993F5807B647A00EB1B36
:100870008A8370011A458370F5E4F5800FBF00018B
:030880000E80A740
:00000001FF
