:030000000209F200
:0C09F200787FE4F6D8FD758107020A3911
:100E4F001F11111F11111F00080F120F0A1F02028D
:080E5F000F090F090F090B1127
:100DED004700020000000000000044000A0000005F
:100DFD000041000E0041000F0141000001410001C2
:050E0D00014100090194
:0C0E9C007FCD7EDC7D04DDFEDEFADFF69B
:010EA8002227
:0C0EA9007FF37EA37D01DDFEDEFADFF6A4
:010EB500221A
:0C0EB6007F027EA07D0EDDFEDEFADFF67E
:010EC200220D
:100E36007F38120E8C7F0C120E8C7F01120E8C7F67
:090E460006120E8C7F80020E8C56
:100BCB00900011EBF0A3EAF0A3E9F0900010EFF026
:100BDB0075F008A4F0E4900014F0900014E0FFC34B
:100BEB0094085032EF2440FF900010E02FFF90004C
:100BFB0015F0120E8C900011E0FBA3E0FAA3E0F9C4
:100C0B00A3E0F582758300120D96FF120E7C900007
:060C1B0014E004F080C4A7
:010C210022B0
:100E7C00C2A7C2A5D2A68F80D2A7120EB6C2A72235
:100E8C00C2A7C2A5C2A68F80D2A7120EB6C2A72235
:070E1300120E7C7D077F0237
:100E1A00AC05AB071CEBB40107EC2480FF120E8C67
:0C0E2A00EBB40207EC24C0FF120E8C2277
:100D2E00C2B5C2B6D2B57E01E4FBEF5E24FF92B42B
:100D3E00D2B6EE25E0FEC2B60BEBB408ED7E01E4B2
:100D4E00FBED5E24FF92B4EE25E0FED2B6C2B60BEA
:040D5E00EBB408EDFD
:010D6200226E
:100C6C00E4FEC2B5C2B6D2B57D01FBC2B6EF5D24BF
:100C7C00FF92B4D2B6ED25E0FD0BEBB408EDD2B487
:100C8C00E4FBE4FDC2B630B4027D80EE4DFED2B67C
:100C9C00EBC394075004EEC313FE0BEBB408E3C292
:030CAC00B4AF06DC
:010CAF002222
:100CB000E4FD7F8E120D2E7D307F80120D2E7D5033
:100CC0007F82120D2E7D107F84120D2E7D297F864E
:100CD000120D2E7D037F88120D2E7D077F8A120D47
:0F0CE0002E7D157F8C120D2E7D807F8E020D2EA6
:100DC3007C81E4FD7F8E120D2EE4FAAF04120C6CCD
:100DD30074022AF582E43400F583EFF00C0C0AEA7E
:0A0DE300B407E87D807F8E020D2E1C
:100CEF007D077F01120E1A7F44120E7C7F41120E78
:100CFF007C7F54120E7C7F45120E7C7D067F021284
:100D0F000E1AE4FF120E7C7D097F02120E1A7F016C
:0F0D1F00120E7C7D0C7F02120E1A7F02020E7CD8
:100D63007D077F01120E1A7F54120E7C7F49120EEB
:100D73007C7F4D120E7C7F45120E137F3A120E7C40
:100D83007D0A7F02120E1A7F3A120E7C7D0D7F02BE
:030D9300020E1A33
:10096500900008E0FFC4540F2430F9EF540F2430F1
:10097500FA7D027F02120E1A7F32120E7C7F301230
:100985000E7CAF01120E7CAF02120E13900006E032
:10099500FFC4540F2430F9EF540F2430FAE9B43171
:1009A500047F3180027F20120E7CAF02120E7C7D07
:1009B5000A7F02120E1A900005E0FFC4540F24307E
:1009C500F9EF540F2430FAE9B430047F208002AFE8
:1009D50001120E7CAF02120E7C7D0F7F02120E1AE1
:0D09E500900007E0540F2430FAFF020E7C52
:100A7E00900004E0FFC4540F2430FAEF540F2430DA
:100A8E00F97D057F02120E1AEAB431047F31800A15
:100A9E00EAB432047F3280027F20120E7C90000472
:100AAE00E0540F2430F9FF120E7C7D087F02120EE7
:100ABE001A900003E0FFC4540F2430FAEF540F24B1
:100ACE0030F9EAB430047F208002AF02120E7CAF00
:100ADE0001120E7C7D0B7F02120E1A900002E0FFB7
:100AEE00C4540F2430FAEF540F2430F9EA64306006
:0B0AFE0005AF02120E7CAF01020E7C5F
:100C220090000EE0B4A220900001E0D3940140179E
:100C3200900000E070037402F0900000E0B4010242
:100C4200E4F0E4900001F0900001E004F090000074
:100C5200E070057F08120E8C900000E0B402087F5D
:0A0C62000C120E8C7401F0020E9CBF
:100B720090000EE0B46220900001E0D3940140178F
:100B8200900000E070037402F0900000E0B40102F3
:100B9200E4F0E4900001F0900001E004F090000025
:100BA200E0FFB4010690000FE004F0EFB4020C90F5
:100BB200000FE004F09000007401F0120EA9900002
:090BC2000FE0B403037401F022FA
:100E670090000EE0B4A203120C2290000EE0B462D0
:050E770003120B7222C2
:090EC300D2A8D288D2AFD2B2222B
:03000300020800F0
:10080000C0E0C0F0C083C082C0D075D000C000C0BE
:0D08100001C002C003C004C005C006C0073F
:10081D00900017E4F030B2022134A3F0A3F020B21F
:10082D001DC3900019E094E8900018E09403500E59
:10083D00A3E004F070E8900018E004F080E0900070
:10084D0018E4F0A3F030B21DC3900019E094F490B9
:10085D000018E09401500EA3E004F070E890001829
:10086D00E004F080E0900017E4F0900016E4F090C2
:10087D000018E4F0A3F030B202214A20B21DC3905B
:10088D000019E09432900018E09400500EA3E0049B
:10089D00F070E8900018E004F080E090001CE4F0A7
:1008AD00A3F012000090001BE025E0F090001AE08C
:1008BD0033F030B22F900018E4F0A3F030B21DC326
:1008CD00900019E094C8900018E09400500EA3E039
:1008DD0004F070E8900018E004F080E090001CE453
:1008ED00F0A304F090001CE0FEA3E0FF90001AE0DE
:1008FD004EF0A3E04FF0900016E004F0E0C3940832
:10090D005002017C90001AA3E0FF900017E0240A2A
:10091D00F582E43400F583EFF0900017E004F0E089
:10092D00C394045002017790000DE0F4FF90000C89
:0D093D00E0FEB5070590000EEEF0120E670B
:10094A00D007D006D005D004D003D002D001D00001
:0B095A00D0D0D082D083D0F0D0E032AB
:100B0900120E36120EC37BFF7A0E7957E4FF120BD1
:100B1900CB7BFF7A0E795F7F01120BCB7BFF7A0EBD
:100B2900794F7F02120BCB90000FE0B401199000AE
:100B390009E0B4010C120E36120CEF900009740290
:100B4900F0120DC312096590000FE0B402D99000AC
:100B590009E0B4020C120E36120D639000097401FB
:090B6900F0120DC3120A7E80BED9
:1009FE00020B09E493A3F8E493A34003F68001F2FB
:100A0E0008DFF48029E493A3F85407240CC8C333F9
:100A1E00C4540F4420C8834004F456800146F6DFC8
:100A2E00E4800B0102040810204080900DEDE47E5E
:100A3E00019360BCA3FF543F30E509541FFEE493BD
:100A4E00A360010ECF54C025E060A840B8E493A384
:100A5E00FAE493A3F8E493A3C8C582C8CAC583CAAF
:100A6E00F0A3C8C582C8CAC583CADFE9DEE780BE67
:010E120000DF
:100D9600BB010CE58229F582E5833AF583E0225012
:100DA60006E92582F8E622BBFE06E92582F8E2225C
:0D0DB600E58229F582E5833AF583E4932276
:00000001FF
