:03000000020C1AD5
:0C0C1A00787FE4F6D8FD758107020C61BC
:100ABA00000000000000000000000000000000002C
:100ACA00000000000000000000000000000000001C
:100ADA000200420033FC000800543FC86A52AA616F
:100AEA003FFE010008C20801FFFE080008000000DE
:100AFA0000024002410241024102410241027FFEDC
:100B0A00410241024122411A410240020002000010
:100B1A000080010006001FFFE0001FF811101110ED
:100B2A001110FFFF1110111011101FF80000000022
:100B3A0000000000000000000000000000000000AB
:100B4A00000000000000000000000000000000009B
:100B5A00800040002000100008000400020001008C
:100B6A00008000400020001000080004000200017C
:0B0CA60048000C0ADA0AFA0B1A0ABA1E
:080CB20012080012095D80F830
:100800009000037401F0900001740FF0900001E07B
:10081000FFC364809480500302094BA37403F0A3C8
:10082000E07009EF7006900002740AF0900002E098
:10083000FF14F0EF7003020942E4900000F0900012
:1008400000E0F9C36480949050E2E9FB3395E0FA4C
:10085000EB25E0FDEA33FC745B2DF582740B3CF56F
:1008600083E493F4FFE4F4FEC006C007745A2DF548
:1008700082740B3CF583E493F4FDE4F4FC900003F4
:10088000E0FF3395E0FEEF25E0FFEE33FE740C2F22
:10089000F58274003EF583E0FEA3E0F5828E83C00E
:1008A00083C082900001E0FF3395E0FEEB2FFFEA6A
:1008B0003EFEEF25E0FFEE33FEEF2401FFE43EFEB7
:1008C000D082D083E5822FF582E5833EF583E493E1
:1008D000FB7A00900003E0FF3395E0FEEF25E0FF98
:1008E000EE33FE740C2FF58274003EF583E0FEA318
:1008F000E0F5828E83C083C082900001E0FF3395D3
:10090000E0FEE9F5823395E0F583E5822FFFE5838C
:100910003EFEEF25E0FFEE33FED082D083E5822F4E
:10092000F582E5833EF583E493FF90000AE4F0A3AB
:10093000EFF0D007D006120B7A900000E004F0022E
:10094000083E900001E014F002080C900003E0144F
:0C095000F0E0C3648094804003020806BD
:01095C002278
:10095D00E4900003F0E4900001F0900001E0FFC38B
:10096D00648094904003020AA8A37403F0A3E0B43A
:10097D00010AEFB40F06900002740AF0900002E035
:10098D00FF14F0EF7003020A9FE4900000F0900056
:10099D0000E0F9C36480949050E2E9FB3395E0FAEE
:1009AD00EB25E0FDEA33FC745B2DF582740B3CF511
:1009BD0083E493F4FFE4F4FEC006C007745A2DF5EA
:1009CD0082740B3CF583E493F4FDE4F4FC90000396
:1009DD00E0FF3395E0FEEF25E0FFEE33FE740C2FC4
:1009ED00F58274003EF583E0FEA3E0F5828E83C0B0
:1009FD0083C082900001E0FF3395E0FEEB2FFFEA0C
:100A0D003EFEEF25E0FFEE33FEEF2401FFE43EFE58
:100A1D00D082D083E5822FF582E5833EF583E49382
:100A2D00FB7A00900003E0FF3395E0FEEF25E0FF39
:100A3D00EE33FE740C2FF58274003EF583E0FEA3B9
:100A4D00E0F5828E83C083C082900001E0FF339574
:100A5D00E0FEE9F5823395E0F583E5822FFFE5832E
:100A6D003EFEEF25E0FFEE33FED082D083E5822FF0
:100A7D00F582E5833EF583E493FF90000AE4F0A34D
:100A8D00EFF0D007D006120B7A900000E004F002D0
:100A9D00099B900001E004F0020967900003E00457
:0C0AAD00F0E0D3648094815003020962E1
:010AB900221A
:0E0B7A00900004EEF0A3EFF0A3ECF0A3EDF07A
:100B8800D2B6D2B5E4FDC2B6900004E0FEA3E0FF01
:100B98001392B4EEA2E713FEEF13FF900004EEF0F9
:100BA800A3EFF0D2B60DEDB408DCE4FDC2B69000B8
:100BB80006E0FEA3E0FF1392B4EEA2E713FEEF13E4
:100BC800FF900006EEF0A3EFF0D2B60DEDB408DC0E
:100BD800E4FDC2B6EB1392B4EAA2E713FAEB13FBF7
:100BE800D2B60DEDB408EBE4FDC2B690000AE0FE03
:100BF800A3E0FF1392B4EEA2E713FEEF13FF9000F9
:100C08000AEEF0A3EFF0D2B60DEDB408DCC2B5D20F
:010C1800B526
:010C190022B8
:100C2600020CB2E493A3F8E493A34003F68001F226
:100C360008DFF48029E493A3F85407240CC8C333CF
:100C4600C4540F4420C8834004F456800146F6DF9E
:100C5600E4800B0102040810204080900CA6E47E7C
:100C6600019360BCA3FF543F30E509541FFEE49393
:100C7600A360010ECF54C025E060A840B8E493A35A
:100C8600FAE493A3F8E493A3C8C582C8CAC583CA85
:100C9600F0A3C8C582C8CAC583CADFE9DEE780BE3D
:010CB1000042
:00000001FF
