:03000000020BB63A
:0C0BB600787FE4F6D8FD758107020BFD86
:100A56000000000000000000000000000000000090
:100A66000000000000000000000000000000000080
:100A7600010842082788248807BE0488E78824C816
:100A860024A82FA821882A883488288802A801103B
:100A960000007FFC010001000100010001003FF899
:100AA600010001000120011001100100FFFE0000FD
:100AB60008400840084017FC14443444344457FCAA
:100AC60094441444144417FC14441040104010403D
:100AD6000000000000000000000000000000000010
:100AE6000000000000000000000000000000000000
:100AF60080004000200010000800040002000100F1
:100B060000800040002000100008000400020001E0
:090C420046000C0A760A960AB677
:080C4C0012080012092B80F8C8
:10080000E4900003F0E4900001F0900001E0FFC3E9
:10081000648094904003020919A37403F0EFB40FAD
:100820000BA3E0B40106900002740AF0900002E00D
:10083000FF14F0EF7003020910E4900000F0900044
:1008400000E0F9C36480949050E2900003E0FF332D
:1008500095E0FEEF25E0FFEE33FE740C2FF5827479
:10086000003EF583E0FCA3E0FDF5828C83C083C0ED
:1008700082900001E0FF3395E0FEE9FB3395E0FA5A
:10088000EB2FFFEA3EFEEF25E0FBEE33FAEB24010F
:10089000FFE43AFED082D083E5822FF582E5833EE5
:1008A000F583E493F4FFE4F4FEC006C0078D828C68
:1008B00083E5822BF582E5833AF583E493F4FDE446
:1008C000F4FCE9FF3395E0FEEF25E0FFEE33FE7424
:1008D000F72FF582740A3EF583E493FB7A00E9FF73
:1008E0003395E0FEEF25E0FFEE33FE74F62FF58240
:1008F000740A3EF583E493FF90000AE4F0A3EFF05E
:10090000D007D006120B16900000E004F002083E5B
:10091000900001E004F002080A900003E004F0E017
:0A092000D36480948150030208059F
:01092A0022AA
:10092B009000037401F0900001740FF0900001E04F
:10093B00FFC3648094805003020A44A37403F0EF56
:10094B00700AA3E07006900002740AF0900002E0B7
:10095B00FF14F0EF7003020A3BE4900000F09000EC
:10096B0000E0F9C36480949050E2900003E0FF3301
:10097B0095E0FEEF25E0FFEE33FE740C2FF582744D
:10098B00003EF583E0FCA3E0FDF5828C83C083C0C1
:10099B0082900001E0FF3395E0FEE9FB3395E0FA2E
:1009AB00EB2FFFEA3EFEEF25E0FBEE33FAEB2401E3
:1009BB00FFE43AFED082D083E5822FF582E5833EB9
:1009CB00F583E493F4FFE4F4FEC006C0078D828C3C
:1009DB0083E5822BF582E5833AF583E493F4FDE41A
:1009EB00F4FCE9FF3395E0FEEF25E0FFEE33FE74F8
:1009FB00F72FF582740A3EF583E493FB7A00E9FF47
:100A0B003395E0FEEF25E0FFEE33FE74F62FF58213
:100A1B00740A3EF583E493FF90000AE4F0A3EFF031
:100A2B00D007D006120B16900000E004F002096903
:100A3B00900001E014F0020937900003E014F0E09D
:0A0A4B00C364809480400302093167
:010A5500227E
:0E0B1600900004EEF0A3EFF0A3ECF0A3EDF0DE
:100B2400D2B6D2B5E4FDC2B6900004E0FEA3E0FF65
:100B34001392B4EEA2E713FEEF13FF900004EEF05D
:100B4400A3EFF0D2B60DEDB408DCE4FDC2B690001C
:100B540006E0FEA3E0FF1392B4EEA2E713FEEF1348
:100B6400FF900006EEF0A3EFF0D2B60DEDB408DC72
:100B7400E4FDC2B6EB1392B4EAA2E713FAEB13FB5B
:100B8400D2B60DEDB408EBE4FDC2B690000AE0FE67
:100B9400A3E0FF1392B4EEA2E713FEEF13FF90005D
:100BA4000AEEF0A3EFF0D2B60DEDB408DCC2B5D274
:010BB400B58B
:010BB500221D
:100BC200020C4CE493A3F8E493A34003F68001F2F1
:100BD20008DFF48029E493A3F85407240CC8C33334
:100BE200C4540F4420C8834004F456800146F6DF03
:100BF200E4800B0102040810204080900C42E47E45
:100C0200019360BCA3FF543F30E509541FFEE493F7
:100C1200A360010ECF54C025E060A840B8E493A3BE
:100C2200FAE493A3F8E493A3C8C582C8CAC583CAE9
:100C3200F0A3C8C582C8CAC583CADFE9DEE780BEA1
:010C4B0000A8
:00000001FF
