:03000000020800F3
:0C080000787FE4F6D8FD758107020847F8
:1009A7004800001F05041F0404041F4800081B0A11
:0609B7000E111B11150ECC
:10090100900012E4F0A37440F012096D7B017A00AB
:100911007900E4FF12088C7B017A0079087F0112CB
:10092100088C7F847E001209BEE4FFFE1209D17F8C
:0F093100017E001209D17F397E001209D180FEAC
:0B09E400EF1FAC0670011E4C70F622E5
:1009BE00C2A7C2A5C2A68F80D2A7C2A77F647E009F
:0309CE000209E437
:1009D100C2A7C2A5D2A68F80D2A7C2A77F647E007C
:0309E1000209E424
:10096D007F387E001209BE7F0F7E001209BE7F0503
:10097D007E001209BE7F017E001209BE7F010209B1
:01098D008EDB
:10098E00AD07EDB401077F807E001209BEEDB40203
:09099E00077FC07E001209BE2291
:0E088C00900014EFF0A3EBF0A3EAF0A3E9F064
:10089A00E4A3F0A3F0900018E0FCA3E0FDC39408E1
:1008AA00EC64809480504F900014E075F008A4FF27
:1008BA00ED2440FDE43CCD2FFFED35F0FE90001A0B
:1008CA00F0A3EFF01209BE900015E0FBA3E0FAA333
:1008DA00E0F9A3E0FEA3E0F5828E83120940FF331C
:1008EA0095E0FE1209D1900019E004F070A790007B
:0608FA0018E004F0809FED
:0109000022D4
:10080C00020901E493A3F8E493A34003F68001F2F8
:10081C0008DFF48029E493A3F85407240CC8C333ED
:10082C00C4540F4420C8834004F456800146F6DFBC
:10083C00E4800B01020408102040809009A7E47E9C
:10084C00019360BCA3FF543F30E509541FFEE493B1
:10085C00A360010ECF54C025E060A840B8E493A378
:10086C00FAE493A3F8E493A3C8C582C8CAC583CAA3
:10087C00F0A3C8C582C8CAC583CADFE9DEE780BE5B
:0109BD000039
:10094000BB010CE58229F582E5833AF583E022506C
:1009500006E92582F8E622BBFE06E92582F8E222B6
:0D096000E58229F582E5833AF583E49322D0
:00000001FF
