:03000000020800F3
:0C080000787FE4F6D8FD758109020847F6
:0A099D00C0F9A4B0999282F880908E
:0609A70001090001080037
:10096A007580C075A0F0120917E5092508FFE43360
:10097A00FE7C007D0A12088C749D2DF58274093C58
:08098A00F583E493F58080DBA6
:10091700E5A064F0604CE5A064F0604675A00FE5C3
:10092700A0B40703750901E5A0B40B03750902E537
:10093700A0B40D03750903E5A0B40E03750904758A
:10094700A0F0E5A0B47003750801E5A0B4B0037585
:100957000802E5A0B4D003750803E5A0B4E0037569
:030967000804225F
:0B099200EF1FAC0670011E4C70F62237
:10080C0002096AE493A3F8E493A34003F68001F28F
:10081C0008DFF48029E493A3F85407240CC8C333ED
:10082C00C4540F4420C8834004F456800146F6DFBC
:10083C00E4800B01020408102040809009A7E47E9C
:10084C00019360BCA3FF543F30E509541FFEE493B1
:10085C00A360010ECF54C025E060A840B8E493A378
:10086C00FAE493A3F8E493A3C8C582C8CAC583CAA3
:10087C00F0A3C8C582C8CAC583CADFE9DEE780BE5B
:0109AD000049
:10088C00C2D5EC30E709B2D5E4C39DFDE49CFCEE87
:10089C0030E715B2D5E4C39FFFE49EFE1208C2C335
:1008AC00E49DFDE49CFC80031208C230D507C3E430
:0608BC009FFFE49EFE22F6
:1008C200BC000BBE0029EF8DF084FFADF022E4CC1A
:1008D200F875F008EF2FFFEE33FEEC33FCEE9DECE3
:1008E200984005FCEE9DFE0FD5F0E9E4CEFD22ED29
:1008F200F8F5F0EE8420D21CFEADF075F008EF2F73
:10090200FFED33FD4007985006D5F0F222C398FD63
:050912000FD5F0EA2200
:00000001FF
