:03000000020800F3
:0C080000787FE4F6D8FD75811F020847E0
:1009F00008081B0A0E111B11150E061048656C6CB9
:020A00006F2164
:1008E90012099FE4F516F51774102517F8E6FF7E2F
:1008F900001209DD0517E51770020516C39406E510
:10090900166480948040E17F307E001209DD7F31DA
:100919007E001209DD7F0112088C7F0212088C7D8E
:10092900057C007F017E001209437F017E001209C8
:0A093900DD7F027E001209DD80FE62
:1009CA00C2A7C2A5C2A68F80D2A7C2A77F647E0093
:0309DA00020A030B
:1009DD00C2A7C2A5D2A68F80D2A7C2A77F647E0070
:0309ED00020A03F8
:100943008E188F198C1A8D1BE5194518700CE51B31
:100953002480FFE4351AFE1209CAE519640145181B
:0F096300700CE51B24C0FFE4351AFE1209CA22EE
:0B0A0300EF1FAC0670011E4C70F622C5
:10099F007F017E001209CA7F387E001209CA7F0FBD
:1009AF007E001209CA7F067E001209CAE4FDFCFF11
:0B09BF00FE1209437F647E00020A0361
:06088C007B007A007908F0
:080892008F188B198A1A891BCB
:10089A00E4F51CF51DE51875F008A4FFAEF0E51D9A
:1008AA002440CDE4351CCD2FF51FED3EF51EAF1FBC
:1008BA00FE1209CAAB19AA1AA91B851D82851C83B7
:1008CA00120972FF3395E0FE1209DD051DE51D7060
:0E08DA0002051CC39408E51C6480948040B79E
:0108E80022ED
:10080C000208E9E493A3F8E493A34003F68001F211
:10081C0008DFF48029E493A3F85407240CC8C333ED
:10082C00C4540F4420C8834004F456800146F6DFBC
:10083C00E4800B01020408102040809009F0E47E53
:10084C00019360BCA3FF543F30E509541FFEE493B1
:10085C00A360010ECF54C025E060A840B8E493A378
:10086C00FAE493A3F8E493A3C8C582C8CAC583CAA3
:10087C00F0A3C8C582C8CAC583CADFE9DEE780BE5B
:010A020000F3
:10097200BB010CE58229F582E5833AF583E022503A
:1009820006E92582F8E622BBFE06E92582F8E22284
:0D099200E58229F582E5833AF583E493229E
:00000001FF
