:0300000002089E55
:0C089E00787FE4F6D8FD75810C0208E5B7
:10080000FF551055105510601055104810481040F5
:1008100010551055106010551060106010FF1055E5
:1008200010551060105510481040103910FF103945
:100830001040103910401048105510FF1055105539
:100840001060105510481048104010FF10551055FA
:10085000106010551060106010FF1055105510609A
:10086000105510481048104010FF10391040103932
:1008700010401048105510FF1048104C10551060D3
:1008800010601060105510FF106010551040104C93
:0E08900010481048104C1055106010FF10005A
:0309A300010B0045
:10092A00E4F508F50975890175A882758CD8758A68
:10093A00EFD28CE4F50B0509E50970020508900869
:10094A000093F50A0509E5097002050893F50CE517
:10095A000B650C60DEE50AF46015E50A600AB294DC
:10096A00FF7E0012098480E7E4F508F50980C4C215
:0A097A0094AF0C7E0012098480D5B2
:03000B0002099A4D
:09099A00758CD8758AEF050B324B
:100984007D02EF4E600FED60031D80FA7D02EF1FC4
:0509940070F01E80ED73
:01099900223B
:1008AA0002092AE493A3F8E493A34003F68001F231
:1008BA0008DFF48029E493A3F85407240CC8C3334F
:1008CA00C4540F4420C8834004F456800146F6DF1E
:1008DA00E4800B01020408102040809009A3E47E02
:1008EA00019360BCA3FF543F30E509541FFEE49313
:1008FA00A360010ECF54C025E060A840B8E493A3DA
:10090A00FAE493A3F8E493A3C8C582C8CAC583CA04
:10091A00F0A3C8C582C8CAC583CADFE9DEE780BEBC
:0109A6000050
:00000001FF
